:020000040800F2
:1000000000000420E1090008B9090008BB09000844
:10001000BD090008BF090008C10900080000000070
:10002000000000000000000000000000C3090008FC
:10003000C509000800000000C7090008C909000838
:10004000310A0008310A0008310A0008310A0008A4
:10005000310A0008310A0008310A0008310A000894
:10006000310A0008310A0008310A0008310A000884
:10007000310A0008310A0008310A0008310A000874
:10008000310A0008310A0008310A0008310A000864
:10009000310A0008310A0008310A0008310A000854
:1000A000310A0008310A0008310A0008310A000844
:1000B000310A0008310A0008310A0008310A000834
:1000C000310A0008310A0008310A0008310A000824
:1000D000310A0008310A0008310A0008310A000814
:1000E000310A0008310A0008310A0008310A000804
:1000F000310A0008310A0008310A0008310A0008F4
:10010000310A0008310A0008310A0008310A0008E3
:10011000310A0008310A0008310A0008310A0008D3
:10012000310A0008310A0008310A0008310A0008C3
:10013000310A00080000000000000000000000007C
:10014000000000000000000000000000310A00086C
:10015000310A0008310A0008310A0008310A000893
:10016000310A0008310A0008310A0008310A000883
:10017000310A0008310A00080000000000000000F9
:10018000310A0008310A0008310A0008310A000863
:10019000310A0008310A000800000000310A000896
:1001A000000000000000000000000000310A00080C
:1001B000310A0008310A00080000000000000000B9
:1001C000000000000000000000000000000000002F
:1001D000000000000000000000000000310A0008DC
:1001E00010B5054C237833B9044B13B10448AFF371
:1001F00000800123237010BD0C00002000000000CF
:10020000E02F000808B5034B1BB103490348AFF3C7
:10021000008008BD0000000010000020E02F000852
:1002200053B94AB9002908BF00281CBF4FF0FF315D
:100230004FF0FF3000F06AB9ADF1080C6DE904CE63
:1002400000F006F8DDF804E0DDE9022304B07047B1
:100250002DE9F047089D0C46002B4ED194468C4565
:100260008646B2FA82F262D94AB1C2F120039140C5
:1002700020FA03F30CFA02FC194300FA02FE4FEADB
:100280001C471FFA8CF6B1FBF7F44FEA1E4307FB3D
:10029000141143EA014304FB06F199420AD91CEB0D
:1002A000030304F1FF3080F01281994240F20F8184
:1002B000023C6344591A1FFA8EF3B1FBF7F007FBB7
:1002C000101143EA014300FB06F69E420AD91CEBDB
:1002D000030300F1FF3180F0FC809E4240F2F98080
:1002E000634402389B1B40EA044000211DB1D34007
:1002F0000022C5E90032BDE8F0878B4205D90DB177
:10030000C5E9000100210846F5E7B3FA83F10029A9
:1003100046D1A34202D39042C0F0F080861A64EB2B
:1003200003030120002DE6D0C5E90063E3E7002ABE
:1003300040F09080A1EB0C044FEA1C481FFA8CF7A8
:100340000121B4FBF8F64FEA1E4308FB164443EACA
:10035000044307FB06F0984208D91CEB030306F19F
:10036000FF3402D2984200F2CD8026461C1A1FFAB2
:100370008EF3B4FBF8F008FB104443EA044300FB9F
:1003800007F79F4208D91CEB030300F1FF3402D2A8
:100390009F4200F2B0802046DB1B40EA0640A5E702
:1003A000C1F120068B4022FA06F71F4320FA06FC13
:1003B00004FA01F343EA0C03F44000FA01F8380CA4
:1003C0004FEA1349B4FBF0FE1FFA87FC00FB1E4402
:1003D00049EA04440EFB0CF9A14502FA01F20AD9DC
:1003E0003C190EF1FF3A80F08480A14540F28180F3
:1003F000AEF1020E3C44A4EB09041FFA83F9B4FBEE
:10040000F0F300FB134449EA044403FB0CFCA4454D
:1004100007D93C1903F1FF3067D2A44565D9023BE7
:100420003C4443EA0E40A0FB0293A4EB0C049C4224
:10043000CE469C4651D34ED055B1B8EB0E0364EB7B
:100440000C0404FA06F6CB401E43CC40C5E9006418
:10045000002150E7C2F1200320FA03F10CFA02FC5C
:1004600024FA03F394400C434FEA1C4800FA02FEBE
:100470001FFA8CF7B3FBF8F008FB1031230C43EAAA
:10048000014300FB07F1994208D91CEB030300F17B
:10049000FF362CD299422AD9023863445B1AA4B29F
:1004A000B3FBF8F108FB113344EA034401FB07F303
:1004B000A34208D91CEB040401F1FF3613D2A34276
:1004C00011D902396444E41A41EA004139E704468B
:1004D000F0E6084606E7C845AED2B9EB020E63EB7C
:1004E000070C0138A8E73146EDE7034699E73046A7
:1004F000D4E7D6467FE7634402384DE706462346F5
:1005000008460FE7023E634430E700BF704700BF74
:1005100037B50F4C60F07F000E4D00228DF80300C0
:100520001021204600F07CFC0DF103016423012220
:10053000284601F035FB642301A90222284601F078
:1005400028FD01221021204600F06AFC03B030BDD6
:1005500000000240FC00002010B594B014220021DD
:10056000022409A802F00FFD1422002103A802F0C2
:100570000AFD204B012100201A6C42F080521A64BF
:100580001B6C03F080530193019B1B4B1A6842F4D0
:1005900040421A601B68089403F440430E9413947D
:1005A0000293029B1023CDE90B130823CDE90F031F
:1005B000D82308A8CDE9113400F070FC08B172B658
:1005C000FEE700F033FC08B172B6FEE70F234FF4EC
:1005D000A0520590072103A8CDE903344FF48053BE
:1005E000CDE9062300F042FE08B172B6FEE714B072
:1005F00010BD00BF00380240007000402DE9F043FC
:10060000102591B0002100242A4609A802F0BBFC65
:100610004FF0010800F0A8FA48F21F7309A8ADF8DE
:100620002480784ECDE90A4340F201130C9300F088
:10063000B9FA042000F0A6FA00F020FAFFF78CFFC8
:100640002146142209A802F09EFC6F4B29466F48F0
:100650001A6B42EA08021A631A6B02EA0802009255
:10066000009A1A6B42F002021A6342461B6B03F0B7
:1006700002030193019B00F0D3FB09A96348CDE974
:100680000B84CDE9095800F0F3FA61484FF4E133E7
:1006900034617462C6E900030C233046C6E90244A3
:1006A000C6E90534C6E9074402F0D4FB044608B1A4
:1006B00072B6FEE72A46014605A8564D02F063FCD5
:1006C0001C22214609A8DFF85C910494CDE902447C
:1006D00002F059FC6B232846AC60AC61C5E900937D
:1006E0004FF4FA63C5E9033401F09AFE08B172B61B
:1006F000FEE74FF4805305A92846059301F0B0FFAB
:1007000008B172B6FEE7284601F0BAFE08B172B62B
:10071000FEE7029002A90490284602F0A5F80246DE
:1007200008B172B6FEE760230B900D9009A9CDE9E0
:100730000930284601F00EFF08B172B6FEE7042228
:1007400009A9284601F006FF074608B172B6FEE780
:100750002846314C00F0C8F8304A4FF482734FF409
:10076000E0612046A760A7626763C4F81480C4E90B
:1007700000230223C4E903134FF40073C4E90637CE
:100780000723C4E90877C4E90B3701F09BF9074652
:1007900008B172B6FEE720222149304602F0D6FBAE
:1007A0003946284602F05EF82846184D042102F02A
:1007B00059F84FF47A73284600221021C9F83430D2
:1007C000C9F83830F5238DF8143000F029FB05A95D
:1007D00064230122204601F0E3F9642309A90822D9
:1007E000204601F0D6FB01221021284600F018FB1C
:1007F0001F20FFF78DFE2120FFF78AFE2320FFF741
:1008000087FED6E7280000200038024000000240A2
:1008100000440040B0000020FC00002000300140F7
:10082000600100200008004072B6FEE70A4B82B06B
:100830001A6C42F080521A641A6C02F080520092D4
:10084000009A5A6C42F480425A645B6C03F4804311
:100850000193019B02B070470038024010B588B088
:1008600004461422002103A802F08DFB2268124BDB
:100870009A421FD103F58433032110485A6C42F485
:1008800080525A645A6C02F480520192019A1A6B97
:1008900042F001021A63E0221B6B03F00103029392
:1008A000029B0223CDE903230523CDE9061303A907
:1008B00000F0DEF908B010BD003001400000024039
:1008C000026882B0074B9A420AD103F50C331A6CC6
:1008D00042F004021A641B6C03F004030193019BB1
:1008E00002B070470008004010B586B004461422DC
:1008F000002101A802F047FB22680C4B9A4213D159
:1009000003F50C3301A90A481A6B42F002021A637C
:10091000C0221B6B03F002030093009B0223CDE96E
:100920000123059300F0A4F906B010BD00080040B3
:100930000004024030B5A9B08025044614220021ED
:1009400003A802F020FB2A46002108A802F01BFBA6
:100950002268164B9A4227D108A8089500F044FD5A
:1009600008B1FFF761FF124B002112481A6C42F4E4
:1009700000321A641A6C02F400320192019A1A6B66
:1009800042F001021A630C221B6B03F00103029375
:10099000029B0223CDE903230323CDE9051307239B
:1009A00003A9079300F064F929B030BD004400406A
:1009B0000038024000000240FEE7FEE7FEE7FEE7E7
:1009C000FEE770477047704700F064B8034AD2F8FA
:1009D000883043F47003C2F88830704700ED00E0BF
:1009E000DFF834D0FFF7F2FF0C480D490D4A002321
:1009F00002E0D458C4500433C4188C42F9D30A4AD4
:100A00000A4C002301E013600432A242FBD302F03F
:100A1000C3FAFFF7F3FD7047000004200000002038
:100A20000C000020203000080C0000208401002071
:100A3000FEE7000038B50E4B05461A784FF47A737E
:100A4000B3FBF2F30B4A1068B0FBF3F000F078F858
:100A5000044658B90F2D09D8024629464FF0FF30F9
:100A600000F03CF8044B20461D6038BD0120FCE737
:100A700004000020000000200800002008B503202A
:100A800000F01AF80F20FFF7D5FFFFF7CFFE002088
:100A900008BD0000034A044B11681B780B44136027
:100AA000704700BF8001002004000020014B18683F
:100AB000704700BF8001002007490302CA6803F4A1
:100AC000E06322F4E0621204120C134343F0BF63AC
:100AD00043F40033CB60704700ED00E0164B30B5B7
:100AE000DC68C4F30224C4F10703251D042B28BFCE
:100AF0000423062D4FF0FF358CBF033C002405FA7C
:100B000003F3002805FA04F521EA030322EA0502AB
:100B100003FA04F343EA02034FEA0313DBB206DBF2
:100B200000F1604000F5614080F8003330BD00F016
:100B30000F00024A1354F9E700ED00E014ED00E065
:100B40000138B0F1807F0BD24FF0E023054AF0214D
:100B50005861002082F82310072298611A617047BB
:100B60000120704700ED00E0BFF35F8F044B5A6A2D
:100B700022F480325A620022C3F89420704700BFEA
:100B800000ED00E0064B40F00100C3F894005A6A03
:100B900042F480325A62BFF34F8FBFF36F8F7047BA
:100BA00000ED00E04378144AC2F89830D2F8A03043
:100BB00023F00103C2F8A0304368C2F89C30C37A26
:100BC000017B1B0643EA017301780B43817A43EAF8
:100BD000C143417B43EA8143817B43EA4143C17B7B
:100BE00043EA0143417A43EA0123017A43EA41039C
:100BF000C2F8A030704700BF00ED00E070B590F87B
:100C00003440866D012C30D0012480F8344090F8B7
:100C10003540012C4FF0000425D1022580F83550D5
:100C200044650468256825F4802525606360836831
:100C3000402B15D1A260E160C26D3F239340B360A9
:100C4000236843F016032360036C1BB1236843F051
:100C5000080323602368002043F00103236070BD74
:100C6000A160E260E8E780F834400220F7E7000086
:100C70002DE9F74F0023DFF8A491664A01240D689F
:100C80009C4004EA0506AC4340F0AF804D68032762
:100C90004FEA430E05F0030407FA0EFC671E6FEAE5
:100CA0000C0C012F34D8876807EA0C08CF6807FAC4
:100CB0000EF747EA08078760476827EA0608C5F382
:100CC00000179F4047EA08074760C768022C07EAF9
:100CD0000C088F6807FA0EF747EA0807C76019D1B2
:100CE0004FEAD30803F0070A4FF00F0B00EB880818
:100CF0004FEA8A0AD8F820700BFA0AFB27EA0B0B96
:100D00000F6907FA0AF747EA0B07C8F8207001E0F5
:100D1000032CDAD1076804FA0EF415F4403F07EA11
:100D20000C0744EA070404605FD0D9F8444023F07C
:100D3000030703F0030C4FF00F0E44F4804407F157
:100D400080474FEA8C0CC9F8444007F59C37D9F826
:100D500044400EFA0CFE04F480440194019CBC68EB
:100D600024EA0E0E2C4CA04246D004F58064A0422A
:100D700044D004F58064A04242D004F58064A042CF
:100D800040D004F58064A0423ED004F58064A042C7
:100D90003CD004F58064A0423AD004F58064A042BF
:100DA00014BF0824072404FA0CF415F4801F44EA45
:100DB0000E04BC606FEA060794680CBF3C403443E5
:100DC00015F4001F9460D4680CBF3C40344315F404
:100DD000003FD46054680CBF3C403443ED03546082
:100DE000146854BF3C40344314600133102B7FF42B
:100DF00045AF03B0BDE8F08F0024D4E70124D2E76B
:100E00000224D0E70324CEE70424CCE70524CAE774
:100E10000624C8E7003C01400000024000380240C0
:100E20000AB1816170470904FBE70000194B37B52F
:100E30001A6C194C42F080521A641B6C03F08053F8
:100E40000193019B236843F480332360FFF72EFE58
:100E500005466368DA030CD523680F4D43F400336D
:100E60002360FFF723FE04466B689B030AD500202E
:100E700006E0FFF71BFE401BB0F57A7FE9D903209F
:100E800003B030BDFFF712FE001BB0F57A7FEBD93F
:100E9000F5E700BF00380240007000402DE9F34143
:100EA000044640B30368DE0710D423689D0761D46D
:100EB0002368190700F1A68023685A0700F1C7804C
:100EC000A269002A40F0308100202CE0944B9A68FF
:100ED00002F00C02042A07D09A6802F00C02082AD9
:100EE0000BD15B68590208D58D4B1B689A03DCD582
:100EF0006368002BD9D1012015E06368884DB3F5F4
:100F0000803F13D12B6843F480332B60FFF7CEFD75
:100F1000834E054633689B03C7D4FFF7C7FD401BCC
:100F20006428F7D9032002B0BDE8F0819BB92B6893
:100F300023F480332B602B6823F480232B60FFF78E
:100F4000B5FD06462B689F03AFD5FFF7AFFD801BAD
:100F50006428F7D9E6E7B3F5A02F2B6803D143F453
:100F600080232B60CEE723F480332B602B6823F49F
:100F70008023CAE76A4B9A6812F00C0F07D09A6870
:100F800002F00C02082A11D15B685D020ED4644A9B
:100F90001368990702D5E368012BACD11368216966
:100FA00023F0F80343EAC103136081E7E3685C4D73
:100FB000BBB12B6843F001032B60FFF777FD0646BA
:100FC0002B689B0707D52B68226923F0F80343EAB7
:100FD000C2032B606CE7FFF769FD801B0228EFD985
:100FE000A0E72B6823F001032B60FFF75FFD0646A7
:100FF0002B689F077FF55CAFFFF758FD801B022829
:10100000F6D98FE76369464D83B16B6F43F00103F7
:101010006B67FFF74BFD06466B6F9B073FF54CAFC9
:10102000FFF744FD801B0228F6D97BE76B6F23F0A6
:1010300001036B67FFF73AFD06466B6F9F077FF56D
:101040003BAFFFF733FD801B0228F6D96AE7344B2C
:101050001A6CD50027D41A6C012742F080521A640A
:101060001B6C03F080530193019B2E4D2B68D80518
:101070001BD5A3682A4D012B27D12B6F43F0010309
:101080002B6741F28838FFF711FD254E0546336F77
:101090009A073FD5002F3FF413AF214A136C23F07A
:1010A000805313640CE70027DFE72B6843F4807359
:1010B0002B60FFF7FBFC06462B68D905D9D4FFF758
:1010C000F5FC801B6428F7D92CE7ABB92B6F41F2F4
:1010D000883823F001032B672B6F23F004032B6761
:1010E000FFF7E4FC06462B6F9B07D3D5FFF7DEFC2A
:1010F000801B4045F7D915E7052B2B6F03D143F033
:1011000004032B67B9E723F001032B672B6F23F050
:101110000403B5E7FFF7CAFC401B4045B7D901E718
:101120000038024000700040384DAB6803F00C03FB
:10113000082B41D02B68022A23F080732B602ED11C
:10114000FFF7B4FC06462B68990122D4A36A5B081A
:101150005A1ED4E907310B4343EA0243626A43EA69
:101160008213E26A43EA026343F000536B602B6828
:1011700043F080732B60FFF799FC244D04462B68E5
:101180009A013FF5A1AEFFF791FC001B0228F6D9AA
:10119000C8E6FFF78BFC801B0228D4D9C2E6FFF714
:1011A00085FC04462B689B017FF58EAEFFF77EFC25
:1011B000001B0228F6D9B5E6012A6B683FF49BAE06
:1011C00003F48002E1698A427FF495AE03F03F02A6
:1011D000216A8A427FF48FAE47F6C072616A1A4074
:1011E000B2EB811F7FF487AEA26A03F4403152084C
:1011F000013AB1EB024F7FF47EAEE26A03F0706316
:10120000B3EB026F14BF012000208CE600380240CF
:10121000134908B58B6803F00C03042B1BD0082B73
:101220001BD14A684B68496802F03F0213F48003FF
:10123000C1F388111ABF0B4800230B48A1FB000122
:10124000FEF7EEFF064B5B68C3F3014301335B001F
:10125000B0FBF3F008BD0348FCE70348FAE700BF22
:101260000038024080BA8C010024F4002DE9F041DE
:101270000D46044610B90120BDE8F081454A1368C7
:1012800003F00F038B4228D321688F0730D4C8079F
:1012900043D4404A136803F00F03AB4266D8226878
:1012A00051076FD4130707D53B4A2169936823F48C
:1012B000604343EAC1039360FFF7AAFF364B374A06
:1012C0009B68C3F30313D35CD840354B1860354B90
:1012D0001868FFF7AFFB0020CEE7136823F00F0379
:1012E0000B431360136803F00F038B42C3D1CBE7AA
:1012F00011F0040F284B03D09A6842F4E0529A6030
:101300000E0703D59A6842F460429A609A68A06812
:1013100022F0F00202439A60B9E761681E4B01298E
:101320001A681BD112F4003FA5D09A6841F28838A0
:10133000194F22F003020A439A60FFF7B7FB0646F3
:10134000BB68626803F00C03B3EB820FA1D0FFF718
:10135000ADFB801B4045F3D903208DE7022902D164
:1013600012F0007FE0E712F0020FDDE7136823F0D0
:101370000F032B431360136803F00F03AB427FF49A
:101380007AAF8CE70449E0688B6823F4E0530343A9
:101390008B6087E7003C02400038024000300008C4
:1013A0000000002008000020044B054A9B68C3F39E
:1013B0008223D35C034A1068D8407047003802404B
:1013C000F82F000800000020044B054A9B68C3F377
:1013D0004233D35C034A1068D8407047003802405B
:1013E000F82F00080000002003682DE9F74313F0F0
:1013F000010604460BD0AC4A916821F400019160CB
:10140000C66A91683143B6FA86F67609916013F49C
:10141000002512D0A449656BD1F88C20B5F5801F4A
:1014200022F4401208BF012642EA050216BFB5FAAF
:1014300085F500256D09C1F88C20D90210D59A4890
:10144000A16BD0F88C20B1F5800F22F4400242EA63
:101450000102C0F88C2000F04C81002908BF012552
:101460009A0632D5904B914F1A6C42F080521A6412
:101470001B6C03F080530193019B3B6843F4807322
:101480003B60FFF713FB80463B68DB0540F133818F
:10149000854FA26A3B6F13F4407340F03781A36A13
:1014A00003F44072B2F5407F7F4A40F05481916866
:1014B00023F0704021F4F81120F440700143916052
:1014C000C3F30B03116F0B4313672368DA060CD5C4
:1014D000754AD2F88C1021F08071C2F88C10D2F8C5
:1014E0008C10206B0143C2F88C105F0408D56E4944
:1014F000E06DD1F8902022F440320243C1F89020F0
:10150000180408D56849206ED1F8902022F44022B2
:101510000243C1F89020D90308D56349606ED1F821
:10152000902022F440120243C1F890205A0608D5B8
:101530005D49E06BD1F8902022F003020243C1F82C
:1015400090201F0608D55849206CD1F8902022F031
:101550000C020243C1F89020D80508D55249606CAE
:10156000D1F8902022F030020243C1F89020990572
:1015700008D54D49A06CD1F8902022F0C00202435A
:10158000C1F890205A0508D54749E06CD1F8902061
:1015900022F440720243C1F890201F0508D5424949
:1015A000206DD1F8902022F440620243C1F89020CF
:1015B000D80408D53C49606DD1F8902022F44052FF
:1015C0000243C1F89020990408D53749A06DD1F89D
:1015D000902022F440420243C1F890209A020CD598
:1015E0003148616FD0F89020B1F1006F22F00062B5
:1015F00008BF01250A43C0F890205F0308D52A4997
:10160000E06ED1F8902022F040720243C1F89020A1
:10161000180208D52449A06FD1F8902022F08052FA
:101620000243C1F89020590108D51F49E06FD1F855
:10163000902022F000520243C1F89020002E40F08A
:101640008E809A0100F18B80012D50D1164D2B68B0
:1016500023F080532B60FFF729FA06462B689F0082
:1016600000F1E08021680D0301D5636B1BB1C80256
:101670001ED5A36BE3B90C4AD4E90453D2F8880011
:101680001B0600F4403043EA85130343C2F8883058
:10169000D2F88C30206A23F4F853013843EA00234F
:1016A000C2F88C3004E000BF0038024000700040F7
:1016B0008A0210D5636FB3F1006F0CD16049A36942
:1016C000D1F8882020691B0402F0706243EA80137D
:1016D0001343C1F888305A4C236843F08053236089
:1016E000FFF7E4F9054623689B0040F1A280002043
:1016F00009E00126B4E6FFF7D9F9A0EB0800642859
:101700007FF6C2AE032003B0BDE8F08302F440725E
:1017100093423FF4C4AE3B6F3A6F23F4407342F4FC
:1017200080323A673A6F22F480323A673B673B6F08
:10173000D8077FF5B4AEFFF7B9F941F28839804692
:101740003B6F99073FF5ABAEFFF7B0F9A0EB080090
:101750004845F5D9D6E7916821F4F811AFE6384E3F
:10176000336823F080633360FFF7A0F907463368DE
:101770001B0151D42268D7070DD5E36A5BB9D6F8AF
:101780008410D4E9010301F070611B0743EA801360
:101790000B43C6F88430100303D5636BB3F5801F89
:1017A00005D0D10219D5A36BB3F5800F15D124490B
:1017B000E368D1F8840066681B0600F0E04043EA65
:1017C00086130343C1F88430D1F88C00E36920F01C
:1017D0001F00013B0343C1F88C3092010AD5E36836
:1017E00062681B0643EA8213A26843EA0273144A42
:1017F000C2F88430124E336843F080633360FFF7E1
:1018000055F9074633681B013FF51EAFFFF74EF948
:10181000C01B6428F6D975E7FFF748F9C01B642898
:10182000A5D96FE7FFF742F9801B64287FF616AF52
:1018300068E7FFF73BF9401B64287FF654AF61E788
:1018400000380240F7B50E4614460546FFF72EF95C
:101850003444241AFFF72AF9214B07461B68C3F3C7
:10186000CB33634301932A68906810F080002DD039
:10187000731CF9D0FFF71AF9C01BA04228D32B68BC
:101880005A6822F0E0025A606A68B2F5827F0AD193
:10189000AA68B2F5004F02D0B2F5806F03D11A6882
:1018A00022F040021A60AA6AB2F5005F07D11A68F6
:1018B00022F400521A601A6842F400521A6001239E
:1018C000032085F85D30002385F85C3003B0F0BD5F
:1018D000019B13B1019B013BC4E71C46C3E700BF5A
:1018E000000000202DE9F74317461D46002304465B
:1018F0003D440E468DF80330FFF7D8F82D1AFFF758
:10190000D5F8284B23228046D4F800901B68534317
:101910001B0D6B43019322689068304038D0B6F5B8
:10192000C06F06D199F80C30DBB28DF803309DF80A
:1019300003307B1CF0D0FFF7B9F8A0EB0800A842F9
:1019400029D323685A6822F0E0025A606268B2F52F
:10195000827F0AD1A268B2F5004F02D0B2F5806F43
:1019600003D11A6822F040021A60A26AB2F5005F41
:1019700007D11A6822F400521A601A6842F4005221
:101980001A600123032084F85D30002384F85C3062
:1019900003B0BDE8F083019B13B1019B013BB9E7A4
:1019A0001D46B8E7000000204368B3F5827F73B599
:1019B00004460D46164612D0204B214A1B68B3FB45
:1019C000F2F34FF47A7253430193019BEBB1019B05
:1019D000013B019323689B681B06F6D415E08368DE
:1019E000B3F5004F02D0B3F5806F04D122681368BD
:1019F00023F040031360324629462046FFF722FFBA
:101A0000B0B96368B3F5827F02D0002002B070BD28
:101A1000A368B3F5004F02D0B3F5806FF5D133461C
:101A20002A464FF4C0612046FFF75CFF0028ECD047
:101A3000236E032043F020032366E7E70000002025
:101A400000366E0173B513460D4616460A464FF42E
:101A5000C0510446FFF746FF30B1236E032043F028
:101A60002003236602B070BD144B154A1B68B3FBFC
:101A7000F2F34FF47A72534301936368B3F5827FB4
:101A800010D1324629462046FFF7DCFE0028E4D17B
:101A900033462A464FF4C0612046FFF723FF002853
:101AA000E0D0DAE7019B002BF2D0019B013B0193D0
:101AB00023689B681B06F5D4EAE700BF00000020FE
:101AC00000366E0170B50446002867D0436A002BCB
:101AD0005DD14268B2F5827F00D0C3610023A3626A
:101AE00094F85D3003F0FF0223B9204684F85C20AF
:101AF000FEF7B4FE02232268E06884F85D301368C4
:101B0000B0F5E06F23F0400313604FF0000342D9BB
:101B10001D46B0F5706F18BFA36200F47060636873
:101B2000A66803F48273A16906F404463343266968
:101B300006F002063343666906F00106334301F4FA
:101B40000076090C3343E66901F0040106F038061B
:101B50003343266A06F080063343A66A06F400562D
:101B60003343666B136006F00806636A03F01003E4
:101B70003343034300200B432B435360D36923F4C7
:101B80000063D3610123206684F85D3070BD0023BB
:101B9000C0E90433A2E74FF48055BCE70120F5E724
:101BA0002DE9F74304461F460D469046FEF77EFF9B
:101BB00094F85D308146012BD8B240F0B580002DFD
:101BC00076D0B8F1000F73D094F85C30012B00F0A0
:101BD000AB800323266884F85C0084F85D30002322
:101BE000A56323662364A4F83E80A4F84430A4F8D7
:101BF0004630A4F83C80C4E91333A368B3F5004F22
:101C000007D1336823F040033360336843F48043E3
:101C1000336033685B0603D4336843F040033360BA
:101C2000E2686368B2F5E06F45D913B1B8F1010F0E
:101C300007D135F8023BF360A563E38F013B9BB20C
:101C4000E387E38F9BB2D3B94A4639462046FFF774
:101C5000F9FE002865D1A36833B901932368DA68D7
:101C600001929B680193019B012384F85D3000235E
:101C7000206E84F85C30C01A18BF012018E022687A
:101C800093689D0705D5A36B33F8021BD160A3634E
:101C9000D3E7FEF70BFFA0EB0900B842D1D3781CC5
:101CA000CFD00123032084F85D30002384F85C301A
:101CB00003B0BDE8F08313B1B8F1010F13D1E38F86
:101CC0009BB2012B06D935F8023BF360A563E38F85
:101CD000023B06E02B783373A36B0133A363E38FDE
:101CE000013B9BB2E387E38F9BB2002BACD0226811
:101CF000936899070CD5E18FA36B89B2012904D9A8
:101D000033F8021BD160A363E1E71B781373E3E7A9
:101D1000FEF7CCFEA0EB0900B842E4D37B1CE2D076
:101D2000BFE72023236696E70220C1E72DE9F843A9
:101D300004460D4691461E46089FFEF7B7FE94F8EE
:101D40005D2080466368012AD1B20AD0B3F5827F54
:101D500040F01D81A268002A40F01981042940F05A
:101D60001681002D55D0B9F1000F52D0002E50D061
:101D700094F85C20012A00F00A81012284F85C209A
:101D800094F85D20042A02D0052284F85D20E068E2
:101D900000222168B0F5E06F2266C4F84090A4F8F4
:101DA0004660A4F84460E687A563A687C4E91322C9
:101DB0004A6801D8012E2ED022F480524A600A6867
:101DC000520603D40A6842F040020A60B0F5E06FA0
:101DD0005BD90BB1012E07D135F8023BCB60E38F05
:101DE000A563013B9BB2E3870125E38F9BB2ABB9AF
:101DF000B4F846309BB28BB9424639462046FFF7CD
:101E000021FE002800F0B98020232366002384F8F7
:101E10005C30012037E042F48052CFE721688B68C4
:101E20009E070DD5E38F9BB253B145B1A36B33F839
:101E3000022BCA60A363E38F013B9BB2E3870025BB
:101E40008A6812F001020FD0B4F846309BB25BB141
:101E5000C9681546236C23F8021B2364B4F8463086
:101E6000013B9BB2A4F84630FEF720FEA0EB080031
:101E7000B842BAD3781CB8D00123032084F85D306F
:101E8000002384F85C30BDE8F8830BB1012E0BD140
:101E9000E38F9BB2012B09D935F8023BCB60E38F6E
:101EA000A563023B9BB2E387012548E02B780B73C7
:101EB000A36B0133A363E38F013BF3E722689368CD
:101EC000990711D5E38F9BB273B165B1E18FA36B15
:101ED00089B201293DD933F8021BD160A363E38F96
:101EE000023B9BB2E38700252268916811F0010153
:101EF0001DD0B4F846309BB2CBB1B4F84600236C89
:101F000080B201282DD9D06823F8020B2364B4F8DD
:101F10004630023B9BB2A4F84630B4F846309BB240
:101F2000012B03D8536843F4805353600D46FEF7EA
:101F3000BDFDA0EB0800B84201D37B1C9CD1E38F10
:101F40009BB2002BBAD1B4F846309BB2002BB5D16E
:101F500052E71B781373A36B0133A363E38F013B39
:101F6000BFE7127B1A70236C01332364B4F8463048
:101F7000013B9BB2A4F84630D8E7012384F85C000B
:101F800084F85D30206E003818BF01207BE7022006
:101F900079E72DE9F7431E4690F85D3004468946FF
:101FA000012B1746DDB204D00225284603B0BDE858
:101FB000F0830029F9D0002AF7D04368B3F5827F77
:101FC0000BD183684BB9042380F85D30134600962B
:101FD0000A46FFF7ABFE0546E7E7FEF767FD94F814
:101FE0005C308046012BDFD001230025E26884F8B5
:101FF0005C300423A563B2F5E06F84F85D30A587FB
:102000002566A4F84670E587C4F84090A4F84470AB
:10201000C4E9135525686B688CBF23F4805343F4DF
:1020200080536B60A368B3F5004F07D12B6823F092
:1020300040032B602B6823F480432B602B685F06E2
:1020400003D42B6843F040032B60B2F5E06F23D933
:10205000B4F846309BB223B323689A68D20741D5BF
:10206000DA68236C23F8022B2364B4F84630013B72
:102070009BB2A4F84630EBE723689A68D00721D5D5
:102080001B7B226C1370236C01332364B4F846303D
:10209000013B9BB2A4F84630B4F846309BB2002B0B
:1020A000EAD1424631462046FFF77EFC18BB0123A9
:1020B00084F85D300023256E84F85C30ED1A18BF7B
:1020C000012572E7FEF7F2FCA0EB0800B042E3D373
:1020D000711CE1D00123032584F85D30002384F8CE
:1020E0005C3062E7FEF7E2FCA0EB0800B042AFD341
:1020F000731CADD0EEE720232366D8E7036A026A9B
:1021000023F0020322F0010270B502624568826981
:102110000C6822F4803222F0730222438C6823433D
:10212000104CA04203D004F58064A04214D1046A8C
:1021300023F0080324F004040462CC682343094C10
:10214000A04203D004F58064A04205D125F4407577
:10215000D1E9054634432543456082614A684263BC
:10216000036270BD00000140036A026A23F4007339
:1021700022F4807270B502624568C2690C6822F46C
:10218000803222F0730222438C6843EA0423124C0B
:10219000A04203D004F58064A04216D1046A23F45F
:1021A000006324F480640462CC6843EA04230A4C8C
:1021B000A04203D004F58064A04206D125F4405526
:1021C000D1E90546344345EA04154560C2614A68D1
:1021D000C263036270BD00BF00000140026A036A6F
:1021E00022F4005223F4805330B503624468C3697B
:1021F0000D6823F0807323F4E64343EA05238D68DA
:1022000042EA0532084DA84203D005F58065A84290
:1022100004D124F480444D6944EA85144460C361C8
:102220004B680364026230BD00000140026A036A29
:1022300022F4003223F4803330B503624468436DE6
:102240000D6823F4803323F070032B438D6842EA3A
:102250000542094DA84203D005F58065A84204D186
:1022600024F480344D6944EA0524446043654B6896
:102270008365026230BD00BF00000140026A036A4C
:1022800022F4001223F4801330B503624468436DD6
:102290000D6823F0807323F4E04343EA05238D683F
:1022A00042EA0552084DA84203D005F58065A842D0
:1022B00004D124F480244D6944EA852444604365B4
:1022C0004B68C365026230BD00000140036A10B56F
:1022D000046A24F0010404620A4CA04203D004F50D
:1022E0008064A04203D1046A24F004040462846977
:1022F00023F00A0324F0F004194344EA0212826135
:10230000016210BD00000140036A10B5046A24F0A8
:10231000100404620B4CA04203D004F58064A04278
:1023200003D1046A24F040040462846923F0A0030A
:1023300024F4704443EA011144EA023282610162EA
:1023400010BD00BF0000014070470000324A036822
:10235000904212D0B0F1804F0FD0A2F57C42904253
:102360000BD002F58062904207D002F58062904265
:1023700003D002F57842904219D14A6823F07003E5
:102380001343254A904229D0B0F1804F26D0A2F5C0
:102390007C42904222D002F5806290421ED002F52B
:1023A000806290421AD002F57842904216D01B4AC1
:1023B000904213D002F5806290420FD002F5806205
:1023C00090420BD0A2F59832904207D002F580627D
:1023D000904203D002F58062904203D123F440730F
:1023E000CA6813434A6923F0800313438A68C262B0
:1023F0000A688262084A904203D002F580629042E5
:1024000001D10A690263026842F0040202600122FB
:1024100042610360704700BF00000140004001407E
:1024200010B5044650B390F83D3003F0FF021BB9DD
:1024300080F83C20FEF744FA02232068211D84F82E
:102440003D30FFF783FF0123002084F8483084F8F3
:102450003E3084F83F3084F8403084F8413084F8CE
:10246000423084F8433084F8443084F8453084F8AE
:10247000463084F8473084F83D3010BD0120FCE739
:1024800010B5044650B390F83D3003F0FF021BB97D
:1024900080F83C20FFF758FF02232068211D84F8B4
:1024A0003D30FFF753FF0123002084F8483084F8C3
:1024B0003E3084F83F3084F8403084F8413084F86E
:1024C000423084F8433084F8443084F8453084F84E
:1024D000463084F8473084F83D3010BD0120FCE7D9
:1024E000036A026A23F0200322F0100270B5026230
:1024F000456882690C6822F0807222F4E64242EA62
:1025000004228C6843EA0413114CA04203D004F562
:102510008064A04216D1046A23F0800324F04004B2
:102520000462CC6843EA0413094CA04203D004F5CA
:102530008064A04206D125F44065D1E905463443C4
:1025400045EA8405456082614A688263036270BD22
:102550000000014038B590F83C300446012B73D0A0
:1025600001200C2A84F83C004ED008D8042A2BD035
:10257000082A39D0BAB1002384F83C3038BD102A7B
:1025800052D0142AF7D12068FFF778FE0A69436D0C
:1025900043F400634365436D23F480634365436DF7
:1025A00043EA02234EE02068FFF7A8FD0A69836929
:1025B00043F008038361836923F004038361836923
:1025C000134383610020D6E72068FFF789FF0A697B
:1025D000836943F400638361836923F480638361C7
:1025E000836943EA0223ECE72068FFF7BDFD0A692F
:1025F000C36943F00803C361C36923F00403C361E3
:10260000C3691343C361DDE72068FFF7E7FD0A698B
:10261000C36943F40063C361C36923F48063C36186
:10262000C36943EA0223EDE72068FFF7FFFD0A696B
:10263000436D43F008034365436D23F00403436592
:10264000436D13434365BDE7022097E70A4310B586
:10265000846842EA032224F47F442243826010BD4E
:1026600038B590F83C3004460220012B63D084F842
:102670003D000122206884F83C20304B85682B40C7
:1026800083600B68602B42D025D8402B49D016D8E8
:10269000202B0DD00AD833F0100109D0012384F883
:1026A0003D30002384F83C30104638BD302BF5D146
:1026B000826822F07002134343F007031BE0502BA3
:1026C000ECD1CA684968FFF701FE836823F0700304
:1026D00043F057030FE0B3F5805F0DD0B3F5005F13
:1026E0000CD0702BDAD1CB68D1E90121FFF7AEFF16
:1026F000836843F0770383600022CFE7CB68D1E99A
:102700000121FFF7A3FF836843F48043F3E7CA681E
:102710004968FFF7F9FD836823F0700343F067030E
:10272000E9E7CA684968FFF7D1FD836823F07003C1
:1027300043F04703DFE70246B6E700BF8800FEFF2D
:1027400001F01F01036A10B501248A408C4023EA7E
:1027500004030362036A1A43026210BD082908B524
:1027600018D005D859B1042911D090F8433008E0A9
:102770000C2912D01029F8D190F8423001E090F8DD
:102780003E30013B18BF012353B1012030E090F8E7
:102790003F30F6E790F84030F3E790F84130F0E74B
:1027A00008294FF0020327D006D861B1042920D0B0
:1027B000022380F8433008E00C2920D01029F7D1FB
:1027C00080F8423001E080F83E3000680122FFF7D7
:1027D000B7FF204A904215D01F4B984212D0B0F15B
:1027E000804F16D182681D4B1340062B2DD100203F
:1027F00008BD80F83F30E8E780F84030E5E780F832
:102800004130E2E7436C904243F400434364E9D033
:10281000E5E7134B9842E5D003F580639842E1D099
:1028200003F580639842DDD003F578439842D9D010
:1028300003F570539842D5D0A3F594339842D1D084
:10284000036843F001030360D1E7B3F5803FF7D19C
:10285000CDE700BF00000140000401400700010077
:1028600000040040FFF77ABF70B590F83C30044692
:102870000220012B3BD023681D4D84F83D00AB4264
:102880005A68986802D01B4EB34203D122F47002FA
:102890004E6832430E6822F07002AB4242EA0602F2
:1028A0005A6019D0B3F1804F16D0134A934213D017
:1028B00002F5806293420FD002F5806293420BD002
:1028C00002F57842934207D002F57052934203D04A
:1028D000A2F59432934204D1896820F080020A4321
:1028E0009A600123002084F83D3084F83C0070BDDC
:1028F000000001400004014000040040026852E86A
:10290000003F23F4907342E8003102680029F5D1BA
:1029100002F1080353E8003F23F0010302F1080C21
:102920004CE800310029F3D1036E012B07D152E8A6
:10293000003F23F0100342E800310029F7D12023A3
:10294000C0F8803000230366836670477047704785
:102950007047806B0368C26FD0F8801010B59C6818
:1029600024060BD5212A09D153E8002F22F0C002FA
:1029700043E80024002CF7D12022C2679B685B0645
:1029800003D5222901D1FFF7B9FFD0F8843043F0F5
:102990001003C0F88430FFF7DBFF10BD7047012241
:1029A00008B50346806B4266026E012A12D1B0F868
:1029B00058101B684A08A0F85A205B689BB29942DD
:1029C00001D3A0F85A30B0F85A30C91A89B2FFF7CB
:1029D000E5FF08BDFFF7BBFFFBE70246806BD3694D
:1029E000B3F5807F10B532D00023A0F85A300168CB
:1029F00051E8003F23F4807341E800340368002C61
:102A0000F5D103F1080151E8001F21F0010103F1A4
:102A1000080C4CE80014002CF3D103F1080151E834
:102A2000001F21F0400103F1080C4CE80014002CB9
:102A3000F3D12021C0F88010016E012907D153E89D
:102A4000001F21F0100143E80014002CF7D10023EF
:102A50004366016E012911D1A0F85A301368B0F80D
:102A600058105B689BB2994201D9A0F85A30B0F86F
:102A70005A30C91A89B2FFF791FF10BDFFF766FF00
:102A8000FBE7000038B50446C0692169A2682368E5
:102A90000A4361691D680A437D4902432940256A4A
:102AA0000A43E1681A605A6822F440520A435A60A5
:102AB000A26999682A4321F430610A439A60754AF1
:102AC000934213D1744BD3F8903003F00303022BDD
:102AD00000F0A880032B21D0012B40F0BD80B0F581
:102AE000004F40F09C80FEF793FB92E06B4A9342CC
:102AF0001BD1694BD3F8903003F00C03082B00F086
:102B0000918009D8002B00F0AD80042BE7D0012084
:102B10000023C4E91A3338BD0C2BF8D1B0F5004FAF
:102B200000F084804FF40040A3E05D4A93420ED150
:102B3000594BD3F8903003F03003202B72D004D8D7
:102B4000002B00F08F80102BE0E7302BE5E7554A93
:102B500093420DD1504BD3F8903003F0C003802B3B
:102B600060D003D8002B7DD0402BCFE7C02BD4E71B
:102B70004D4A934210D1484BD3F8903003F4407340
:102B8000B3F5007F4ED004D8002B6BD0B3F5807F17
:102B9000BCE7B3F5407FC0E7444A934210D13E4BB7
:102BA000D3F8903003F44063B3F5006F3AD004D803
:102BB000002B51D0B3F5806FA8E7B3F5406FACE7B9
:102BC0003B4A934210D1344BD3F8903003F4405336
:102BD000B3F5005F26D004D8002B43D0B3F5805F57
:102BE00094E7B3F5405F98E7324A93428FD12A4B7E
:102BF000D3F8903003F44043B3F5004F12D003D81C
:102C000083B3B3F5804F81E7B3F5404F85E7FEF717
:102C1000CBFB58B900207BE7FEF7D6FB27E0FEF799
:102C2000F7FA24E0B0F5004F234822D16268530838
:102C300003EB4003B3FBF2F34FF6EF72A3F1100185
:102C400091423FF664AF23F00F02C3F342032168C1
:102C500092B21343CB60DDE7B0F5004FDCD1FEF755
:102C6000B3FBD6E7B0F5004FD1D0FEF79DFB0028AF
:102C7000D0D0626800EB5203B3FBF2F34FF6EF7271
:102C8000A3F1100191423FF642AF2268D360C1E741
:102C9000F369FFEF0010014000380240004400409B
:102CA00000480040004C004000500040001401402B
:102CB00000780040007C00400024F400436A1A07BA
:102CC00010B506D50168446B4A6822F400422243DD
:102CD0004A60DC0706D50168846A4A6822F400323B
:102CE00022434A60990706D50168C46A4A6822F4FB
:102CF000803222434A605A0706D50168046B4A684D
:102D000022F4802222434A60DC0606D50168846BE7
:102D10008A6822F4805222438A60990606D50168A7
:102D2000C46B8A6822F4005222438A605A0610D586
:102D30000168046C4A68B4F5801F22F4801242EAEC
:102D400004024A6005D14A68446C22F4C00222435E
:102D50004A601B0606D50268816C536823F4002381
:102D60000B43536010BD2DE9F843DDF82090044675
:102D70000D46174698462268D36935EA03030CBF0F
:102D800001230023BB4201D0002022E0B9F1FF3F24
:102D9000F2D0FDF78BFEA0EB0800484529D8B9F129
:102DA000000F26D021680B685A07E4D5802DE2D0A9
:102DB000402DE0D0CE6916F008060CD0082520463C
:102DC0000D62FFF79BFD00230120C4F8845084F8B6
:102DD0007830BDE8F883CB691B05CCD54FF4006390
:102DE00020460B62FFF78AFD202384F87860C4F840
:102DF00084300320EDE737B500250446C0F8845041
:102E0000FDF754FE22680346126812071AD56FF0C8
:102E10007E424FF40011204600922A46FFF7A3FF9E
:102E200080B1226852E8003F23F0800342E800317D
:102E30000029F6D120230320E367002384F87830AB
:102E400003B030BD20230020E367C4F88030206643
:102E50006066F2E710B5044640B3C36F1BB980F853
:102E60007830FDF767FD24232268E367136823F0B9
:102E700001031360636A13B12046FFF71FFF20466A
:102E8000FFF700FE012811D0236820465A6822F47B
:102E900090425A609A6822F02A029A601A6842F0B8
:102EA0000102BDE810401A60FFF7A5BF012010BD68
:102EB00070B51346A0F85820002204464165C0F8BA
:102EC000842022202568C4F88000606FA0B11C4EC9
:102ED000C6631C4E06641C4EC0E913620A4605F127
:102EE0002401FDF78BFE38B110230120C4F8843093
:102EF0002023C4F8803070BD226923683AB153E8BA
:102F0000002F42F4807243E800210029F7D103F139
:102F1000080252E8002F42F0010203F1080040E8E5
:102F200000210029F3D103F1080252E8002F42F0FA
:102F3000400203F1080141E800200028F3D1DAE75C
:102F4000DB2900089F29000853290008D0F88030A9
:102F5000202B30B412D1A1B19AB1002304680366CA
:102F600063681B0207D554E8003F43F0806344E8E0
:102F70000035002DF7D130BCFFF79ABF022030BCDE
:102F800070470120FBE702440346934200D170479B
:102F900003F8011BF9E7000070B50D4D0D4C641BE3
:102FA000A4100026A64209D10B4D0C4C00F018F8D5
:102FB000641BA4100026A64205D170BD55F8043B41
:102FC00098470136EEE755F8043B98470136F2E79B
:102FD0001830000818300008183000081C300008AD
:102FE000F8B500BFF8BC08BC9E467047F8B500BFF6
:082FF000F8BC08BC9E467047C6
:102FF80000000000010203040000000000000000BF
:08300800010203040607080998
:0830100040D2FF7F0100000027
:0430180005020008A5
:04301C00E1010008C6
:0C3020000024F40001000000100000007B
:04000005080009E105
:00000001FF
