:020000040800F2
:100000000000042061180008991700089B170008D9
:100010009D1700089F170008A117000800000000A6
:10002000000000000000000000000000A31700080E
:10003000A517000800000000A7170008A91700086E
:10004000B1180008B1180008B1180008B11800086C
:10005000B1180008B1180008B1180008B11800085C
:10006000B1180008B1180008B1180008B11800084C
:10007000B1180008B1180008B1180008B11800083C
:10008000B1180008B1180008B1180008B11800082C
:10009000B1180008B1180008B1180008B11800081C
:1000A000B1180008B1180008B1180008B11800080C
:1000B000B1180008B1180008B1180008B1180008FC
:1000C000B1180008B1180008B1180008B1180008EC
:1000D000B1180008B1180008B1180008AD170008E1
:1000E000B1180008B1180008B1180008B1180008CC
:1000F000B1180008B1180008B1180008B1180008BC
:10010000B1180008B1180008B1180008B1180008AB
:10011000B1180008B1180008B1180008B11800089B
:10012000B1180008B1180008B1180008B11800088B
:10013000B1180008000000000000000000000000EE
:10014000000000000000000000000000B1180008DE
:10015000B1180008B1180008B1180008B11800085B
:10016000B1180008B1180008B1180008B11800084B
:10017000B1180008B11800080000000000000000DD
:10018000B1180008B1180008B1180008B11800082B
:10019000B1180008B118000800000000B1180008EC
:1001A000000000000000000000000000B11800087E
:1001B000B1180008B118000800000000000000009D
:1001C000000000000000000000000000000000002F
:1001D000000000000000000000000000B11800084E
:1001E00010B5054C237833B9044B13B10448AFF371
:1001F00000800123237010BDD40100200000000006
:100200001C6C000808B5034B1BB103490348AFF34E
:10021000008008BD00000000D80100201C6C000810
:1002200001F0FF01102A2BDB10F0070F08D010F8A7
:10023000013B013A8B422DD010F0070F42B3F6D1AB
:10024000F0B441EA012141EA014122F007047FF0C4
:1002500000070023F0E80256083C85EA010586EA1B
:10026000010685FA47F5A3FA87F586FA47F6A5FA57
:1002700087F68EB9EED1F0BC01F0FF0102F0070263
:1002800032B110F8013B013A83EA010313B1F8D10E
:100290000020704701387047002D06BF35460338EF
:1002A000073815F0010F07D1013015F4807F02BF28
:1002B000013015F4C03F0130F0BC0138704700BF79
:1002C000034613F8012B002AFBD1181A0138704796
:1002D00081F0004102E000BF83F0004330B54FEAF7
:1002E00041044FEA430594EA050F08BF90EA020F64
:1002F0001FBF54EA000C55EA020C7FEA645C7FEAF7
:10030000655C00F0E2804FEA5454D4EB5555B8BF19
:100310006D420CDD2C4480EA020281EA030382EA8A
:10032000000083EA010180EA020281EA0303362D1C
:1003300088BF30BD11F0004F4FEA01314FF4801CEF
:100340004CEA113102D0404261EB410113F0004F01
:100350004FEA03334CEA133302D0524263EB4303B8
:1003600094EA050F00F0A780A4F10104D5F1200E56
:100370000DDB02FA0EFC22FA05F2801841F10001B1
:1003800003FA0EF2801843FA05F359410EE0A5F185
:1003900020050EF1200E012A03FA0EFC28BF4CF0B6
:1003A000020C43FA05F3C01851EBE37101F000456C
:1003B00007D54FF0000EDCF1000C7EEB00006EEB79
:1003C0000101B1F5801F1BD3B1F5001F0CD3490803
:1003D0005FEA30004FEA3C0C04F101044FEA44525A
:1003E00012F5800F80F09A80BCF1004F08BF5FEAE1
:1003F000500C50F1000041EB045141EA050130BDC1
:100400005FEA4C0C404141EB0101013C28BFB1F5D2
:10041000801FE9D291F0000F04BF01460020B1FA1D
:1004200081F308BF2033A3F10B03B3F120020CDAF0
:100430000C3208DD02F1140CC2F10C0201FA0CF0CE
:1004400021FA02F10CE002F11402D8BFC2F1200C33
:1004500001FA02F120FA0CFCDCBF41EA0C019040E9
:10046000E41AA2BF01EB0451294330BD6FEA040432
:100470001F3C1CDA0C340EDC04F11404C4F120021D
:1004800020FA04F001FA02F340EA030021FA04F32F
:1004900045EA030130BDC4F10C04C4F1200220FA86
:1004A00002F001FA04F340EA0300294630BD21FAC4
:1004B00004F0294630BD94F0000F83F4801306BF8A
:1004C00081F480110134013D4EE77FEA645C18BF7E
:1004D0007FEA655C29D094EA050F08BF90EA020F15
:1004E00005D054EA000C04BF1946104630BD91EA0D
:1004F000030F1EBF0021002030BD5FEA545C05D110
:100500004000494128BF41F0004130BD14F580044E
:100510003CBF01F5801130BD01F0004545F0FE41C2
:1005200041F470014FF0000030BD7FEA645C1ABFF7
:10053000194610467FEA655C1CBF0B46024650EA2E
:10054000013406BF52EA033591EA030F41F400215A
:1005500030BD00BF90F0000F04BF0021704730B5E0
:100560004FF4806404F132044FF000054FF00001B5
:1005700050E700BF90F0000F04BF0021704730B576
:100580004FF4806404F1320410F0004548BF40424B
:100590004FF000013EE700BF42004FEAE2014FEAA0
:1005A00031014FEA02701FBF12F07F4393F07F4F7B
:1005B00081F06051704732F07F4208BF704793F07E
:1005C0007F4F04BF41F40021704730B54FF4607491
:1005D00001F0004521F000411CE700BF50EA010294
:1005E00008BF704730B54FF000050AE050EA01023D
:1005F00008BF704730B511F0004502D5404261EBAD
:1006000041014FF4806404F132045FEA915C3FF4ED
:10061000D8AE4FF003025FEADC0C18BF03325FEA8A
:10062000DC0C18BF033202EBDC02C2F1200300FA3B
:1006300003FC20FA02F001FA03FE40EA0E0021FA60
:1006400002F11444BDE600BF70B54FF0FF0C4CF44E
:10065000E06C1CEA11541DBF1CEA135594EA0C0F00
:1006600095EA0C0F00F0DEF82C4481EA030621EA3B
:100670004C5123EA4C5350EA013518BF52EA033576
:1006800041F4801143F4801338D0A0FB02CE4FF028
:100690000005E1FB02E506F00042E0FB03E54FF058
:1006A0000006E1FB03569CF0000F18BF4EF0010E50
:1006B000A4F1FF04B6F5007F64F5407404D25FEA4C
:1006C0004E0E6D4146EB060642EAC62141EA5551FF
:1006D0004FEAC52040EA5E504FEACE2EB4F1FD0C41
:1006E00088BFBCF5E06F1ED8BEF1004F08BF5FEABF
:1006F000500E50F1000041EB045170BD06F0004671
:1007000046EA010140EA020081EA0301B4EB5C041D
:10071000C2BFD4EB0C0541EA045170BD41F4801115
:100720004FF0000E013C00F3AB8014F1360FDEBF3A
:10073000002001F0004170BDC4F10004203C35DA16
:100740000C341BDC04F11404C4F1200500FA05F399
:1007500020FA04F001FA05F240EA020001F000423A
:1007600021F0004110EBD37021FA04F642EB0601B0
:100770005EEA430E08BF20EAD37070BDC4F10C04DA
:10078000C4F1200500FA04F320FA05F001FA04F29E
:1007900040EA020001F0004110EBD37041F100018A
:1007A0005EEA430E08BF20EAD37070BDC4F1200595
:1007B00000FA05F24EEA020E20FA04F301FA05F2FD
:1007C00043EA020321FA04F001F0004121FA04F2A5
:1007D00020EA020000EBD3705EEA430E08BF20EA75
:1007E000D37070BD94F0000F0FD101F000464000AF
:1007F00041EB010111F4801F08BF013CF7D041EA31
:10080000060195F0000F18BF704703F00046520034
:1008100043EB030313F4801F08BF013DF7D043EA05
:100820000603704794EA0C0F0CEA135518BF95EABB
:100830000C0F0CD050EA410618BF52EA4306D1D142
:1008400081EA030101F000414FF0000070BD50EA61
:10085000410606BF1046194652EA430619D094EAEB
:100860000C0F02D150EA013613D195EA0C0F05D1D5
:1008700052EA03361CBF104619460AD181EA030129
:1008800001F0004141F0FE4141F470014FF00000E1
:1008900070BD41F0FE4141F4780170BD70B54FF07C
:1008A000FF0C4CF4E06C1CEA11541DBF1CEA1355FC
:1008B00094EA0C0F95EA0C0F00F0A7F8A4EB0504DE
:1008C00081EA030E52EA03354FEA013100F08880D5
:1008D0004FEA03334FF0805545EA131343EA12639E
:1008E0004FEA022245EA111545EA10654FEA002653
:1008F0000EF000419D4208BF964244F1FD0404F50C
:10090000407402D25B084FEA3202B61A65EB030567
:100910005B084FEA32024FF480104FF4002CB6EB24
:10092000020E75EB030E22BFB61A754640EA0C00A4
:100930005B084FEA3202B6EB020E75EB030E22BFE4
:10094000B61A754640EA5C005B084FEA3202B6EB25
:10095000020E75EB030E22BFB61A754640EA9C00E4
:100960005B084FEA3202B6EB020E75EB030E22BFB4
:10097000B61A754640EADC0055EA060E18D04FEA72
:10098000051545EA16754FEA06164FEAC30343EA12
:1009900052734FEAC2025FEA1C1CC0D111F4801FDF
:1009A0000BD141EA00014FF000004FF0004CB6E7D8
:1009B00011F4801F04BF01430020B4F1FD0C88BF77
:1009C000BCF5E06F3FF6AFAEB5EB030C04BFB6EB82
:1009D000020C5FEA500C50F1000041EB045170BD75
:1009E0000EF0004E4EEA113114EB5C04C2BFD4EBA2
:1009F0000C0541EA045170BD41F480114FF0000E26
:100A0000013C90E645EA060E8DE60CEA135594EAA1
:100A10000C0F08BF95EA0C0F3FF43BAF94EA0C0FA4
:100A20000AD150EA01347FF434AF95EA0C0F7FF419
:100A300025AF104619462CE795EA0C0F06D152EA6D
:100A400003353FF4FDAE1046194622E750EA410651
:100A500018BF52EA43067FF4C5AE50EA41047FF462
:100A60000DAF52EA43057FF4EBAE12E74FF0FF3CC7
:100A700006E000BF4FF0010C02E000BF4FF0010C98
:100A80004DF804CD4FEA410C7FEA6C5C4FEA430C11
:100A900018BF7FEA6C5C1BD001B050EA410C0CBF60
:100AA00052EA430C91EA030F02BF90EA020F0020C2
:100AB000704710F1000F91EA030F58BF994208BF29
:100AC00090422CBFD8176FEAE37040F001007047E6
:100AD0004FEA410C7FEA6C5C02D150EA013C07D13D
:100AE0004FEA430C7FEA6C5CD6D152EA033CD3D088
:100AF0005DF8040B704700BF8446104662468C4682
:100B00001946634600E000BF01B5FFF7B7FF0028B4
:100B100048BF10F1000F01BD4DF808EDFFF7F4FFDD
:100B20000CBF012000205DF808FB00BF4DF808ED68
:100B3000FFF7EAFF34BF012000205DF808FB00BF8B
:100B40004DF808EDFFF7E0FF94BF012000205DF8AD
:100B500008FB00BF4DF808EDFFF7CEFF94BF012062
:100B600000205DF808FB00BF4DF808EDFFF7C4FF5B
:100B700034BF012000205DF808FB00BF4FEA410CA4
:100B80007FEA6C5C02D150EA013C0AD14FEA430C87
:100B90007FEA6C5C02D152EA033C02D14FF00000C4
:100BA00070474FF0010070474FEA410212F5001202
:100BB00015D211D56FF47873B3EB625212D94FEAA4
:100BC000C12343F0004343EA505311F0004F23FA8E
:100BD00002F018BF404270474FF00000704750EAE3
:100BE000013005D111F0004008BF6FF000407047A0
:100BF0004FF00000704700BF53B94AB9002908BF41
:100C000000281CBF4FF0FF314FF0FF3000F06AB9F1
:100C1000ADF1080C6DE904CE00F006F8DDF804E053
:100C2000DDE9022304B070472DE9F047089D0C462A
:100C3000002B4ED194468C458646B2FA82F262D998
:100C40004AB1C2F12003914020FA03F30CFA02FCEE
:100C5000194300FA02FE4FEA1C471FFA8CF6B1FB5B
:100C6000F7F44FEA1E4307FB141143EA014304FB68
:100C700006F199420AD91CEB030304F1FF3080F01E
:100C80001281994240F20F81023C6344591A1FFAC3
:100C90008EF3B1FBF7F007FB101143EA014300FBB1
:100CA00006F69E420AD91CEB030300F1FF3180F0E7
:100CB000FC809E4240F2F980634402389B1B40EA6C
:100CC000044000211DB1D3400022C5E90032BDE837
:100CD000F0878B4205D90DB1C5E900010021084616
:100CE000F5E7B3FA83F1002946D1A34202D390423B
:100CF000C0F0F080861A64EB03030120002DE6D0DB
:100D0000C5E90063E3E7002A40F09080A1EB0C0402
:100D10004FEA1C481FFA8CF70121B4FBF8F64FEAA2
:100D20001E4308FB164443EA044307FB06F09842BF
:100D300008D91CEB030306F1FF3402D2984200F2FB
:100D4000CD8026461C1A1FFA8EF3B4FBF8F008FB80
:100D5000104443EA044300FB07F79F4208D91CEB09
:100D6000030300F1FF3402D29F4200F2B08020461C
:100D7000DB1B40EA0640A5E7C1F120068B4022FAC2
:100D800006F71F4320FA06FC04FA01F343EA0C03BA
:100D9000F44000FA01F8380C4FEA1349B4FBF0FEB6
:100DA0001FFA87FC00FB1E4449EA04440EFB0CF9C1
:100DB000A14502FA01F20AD93C190EF1FF3A80F07E
:100DC0008480A14540F28180AEF1020E3C44A4EB48
:100DD00009041FFA83F9B4FBF0F300FB134449EA5A
:100DE000044403FB0CFCA44507D93C1903F1FF3074
:100DF00067D2A44565D9023B3C4443EA0E40A0FBC0
:100E00000293A4EB0C049C42CE469C4651D34ED098
:100E100055B1B8EB0E0364EB0C0404FA06F6CB40B4
:100E20001E43CC40C5E90064002150E7C2F1200315
:100E300020FA03F10CFA02FC24FA03F394400C4369
:100E40004FEA1C4800FA02FE1FFA8CF7B3FBF8F0D9
:100E500008FB1031230C43EA014300FB07F19942E0
:100E600008D91CEB030300F1FF362CD299422AD992
:100E7000023863445B1AA4B2B3FBF8F108FB1133E8
:100E800044EA034401FB07F3A34208D91CEB040422
:100E900001F1FF3613D2A34211D902396444E41A96
:100EA00041EA004139E70446F0E6084606E7C8454E
:100EB000AED2B9EB020E63EB070C0138A8E731465E
:100EC000EDE7034699E73046D4E7D6467FE763442B
:100ED00002384DE70646234608460FE7023E6344C4
:100EE00030E700BF704700BF73B50E4E05460C4695
:100EF00000223046102100F009FF0A2301A9022236
:100F000009488DF804508DF8054001F0BFFD01221D
:100F10001021304600F0FAFE0A2000F00DFD02B06C
:100F200070BD00BF00000240F80300209F23002294
:100F300073B5102146488DF8073000F0E7FE0A230C
:100F400001220DF10701434801F0A0FD044664238E
:100F50000C2241493F4801F092FF01220443102135
:100F60003B4800F0D3FE3D48E4B23B4B0021024633
:100F70001E7801315D780233062945EA062520F8FE
:100F8000025BF5D1B2F900102046DFED356A07EEBD
:100F9000901A9FED347A344BF8EEE77A67EEA67A32
:100FA00067EE877AFDEEE77A17EE901A1980B2F9AC
:100FB000021007EE901AF8EEE77A67EEA67A67EE6F
:100FC000877AFDEEE77A17EE901A5980B2F904108D
:100FD00007EE901AF8EEE77A67EEA67ADFED236A5D
:100FE00067EE877A9FED227AFDEEE77A17EE901A88
:100FF0009980B2F9061007EE901AF8EEE77A67EEDC
:10100000877A87EEA66ABDEEC66A16EE101AD980F8
:10101000B2F90810B2F90A2007EE901AF8EEE77A52
:1010200067EE877A87EEA66A07EE902AF8EEE77AEF
:1010300067EE877A87EEA67ABDEEC66A16EE101ABC
:101040001981BDEEC77A17EE102A5A8102B070BD21
:1010500000000240F8030020FC010020F001002005
:101060000AE81C410000003A0802002033338341A3
:1010700035FA8E3C08B500211120FFF735FFF3212A
:101080004C20FFF731FF99214D20FFF72DFF0F2155
:101090004E20FFF729FF02215020FFF725FF0221F4
:1010A0004F20BDE80840FFF71FBF000010B51446F1
:1010B000642392B2024802F0CAFE204610BD00BF6F
:1010C0001402002010B594B014220021022409A8B3
:1010D00003F0DFFC1422002103A803F0DAFC204B0C
:1010E000012100201A6C42F080521A641B6C03F03C
:1010F00080530193019B1B4B1A6842F440421A60D3
:101100001B68089403F440430E940293029B10233F
:10111000CDE90B130823CDE90F03D82308A8CDE9A7
:1011200011340923139300F02FFE08B172B6FEE7C5
:1011300000F0F2FD08B172B6FEE70F234FF4A052A3
:101140000590072103A8CDE903344FF48053CDE97E
:10115000062301F001F808B172B6FEE714B010BD25
:1011600000380240007000402DE9F0434FF01009B4
:10117000002100244FF001084A464FF4E1370C26C5
:101180002DED0A8B95B00DA803F083FC00F04CFC0C
:1011900048F21F730DA8ADF83480CDE90E4340F23C
:1011A0000113109300F05EFC042000F04BFC00F0F3
:1011B000A5FBFFF787FF142221460DA803F069FC69
:1011C000634B494663481A6B42EA08021A631A6B7A
:1011D00002EA08020492049A1A6B42F002021A63AD
:1011E00042461B6B03F002030593059B00F08EFD46
:1011F0000DA95848CDE90D98CDE90F8400F0AEFC5B
:101200005548564B04614462C0E90037C0E90244C6
:10121000C0E90564C0E9074402F09EFE054608B136
:1012200072B6FEE701464A4609A84D4C03F031FC70
:101230001C2229460DA80895CDE9065503F029FC86
:101240006B23DFF838E12046A560A561C4E900E31F
:101250004FF4FA63C4E9033502F058F808B172B6E6
:10126000FEE74FF4805309A92046099302F06EF976
:1012700008B172B6FEE7204602F078F808B172B6FF
:10128000FEE7069006A90890204602F063FA02469F
:1012900008B172B6FEE760230F9011900DA9CDE959
:1012A0000D30204602F0CCF808B172B6FEE70422F9
:1012B0000DA9204602F0C4F8054608B172B6FEE753
:1012C0002046284C00F0A2F927484FF482734FF4CF
:1012D000E06C8560C0F8148085624563C0E9004316
:1012E0000223C0E903C34FF40073C0E906350723A6
:1012F000C0E90855C0E90B3501F05AFB034608B1B7
:1013000072B6FEE719481A4AC0E90233C0E904364A
:10131000C0E90633C0E90833C0E9002702F01CFE2B
:10132000034608B172B6FEE712484FF46142124913
:10133000C0E90233C0E90012C0E90436C0E906334F
:10134000C0E9083302F008FEE0B172B6FEE700BF64
:1013500000380240000002409C020020004400408F
:10136000AC03002000300140F803002024030020DB
:101370000010014014020020004800400008004016
:10138000000000001FED028A002167480026F0EEF1
:10139000489A9FED66BAB0EE48AA654D02F0D8F9BA
:1013A0000421614802F0D4F9FFF764FEFFF7BEFDA7
:1013B00000F0BCFA861B044607EE906A5D4EF8EE1C
:1013C000677AB6F90630B6F904800CEE103AB6F931
:1013D0000830C7EE8BBAB6F902700AEE903AB6F949
:1013E0000A3007EE903AF8EEE77AB8EECCCAF8EE9B
:1013F000EAAAABEEA78A07EE908A08FB08F8F8EE97
:10140000E70A07EE907AB8EEE70A05F067FAB6F950
:101410000030F0EE408A5B4207EE903A07FB07830C
:10142000B8EEE79A00EE103AB8EEC00A05F058FAA6
:10143000F0EE400AB0EE490A05F050FAF0EE696AA3
:101440009FED3D7ADFED3D7AEBEE8C6A68EE878AA0
:1014500020EE070AE6EEA78AF0EE4A6AEBEEAA6AE9
:1014600018EE900AF0EE689AA6EEA70AB0EE40AA2F
:10147000FFF792F806460F4618EE100AFFF78CF8B1
:10148000CDE902011AEE100AFFF786F83B46324614
:10149000CDE900012A4803F0A7FA642000F04CFAD5
:1014A0002B78202B3ED16B78402B3BD1204A00215A
:1014B0004FF6FF73104610F8016B01319B1B1E297C
:1014C0009BB2F8D1E97FB3EB012FAB7F08BF43F0AC
:1014D00001033BB31B4900230E46D778013312F8B2
:1014E000020F062B40EA072021F8020BF5D1B6F9CE
:1014F0000430B6F90220A3F2DC531348A2F2DC5206
:1015000003EBD37302EBD272C3F34F03C2F34F0268
:10151000991803F2DC5301F2DC519B1A09B21BB299
:1015200041638363264641E7AC03002000007A4410
:1015300078040020080200200AD7233CA4707D3FD5
:10154000386C00085C0400200008004072B6FEE71A
:101550000A4B82B01A6C42F080521A641A6C02F084
:1015600080520092009A5A6C42F480425A645B6C3A
:1015700003F480430193019B02B07047003802409E
:1015800010B588B004461422002103A803F081FAA4
:101590002268124B9A421FD103F58433032110486D
:1015A0005A6C42F480525A645A6C02F4805201928E
:1015B000019A1A6B42F001021A63E0221B6B03F0DE
:1015C00001030293029B0223CDE903230523CDE906
:1015D000061303A900F0C2FA08B010BD00300140A4
:1015E00000000240026882B0074B9A420AD103F51C
:1015F0000C331A6C42F004021A641B6C03F00403EF
:101600000193019B02B070470008004010B586B0FE
:1016100004461422002101A803F03BFA22680C4B77
:101620009A4213D103F50C3301A90A481A6B42F010
:1016300002021A63C0221B6B03F002030093009B9B
:101640000223CDE90123059300F088FA06B010BD0E
:10165000000800400004024030B5ADB080250446CB
:101660001422002107A803F014FA2A4600210CA82E
:1016700003F00FFA2368424A93422BD140230CA86F
:101680000C9300F027FE08B1FFF760FF3D4B5A6C4A
:1016900042F010025A645A6C02F010020192019A50
:1016A0001A6B42F001021A631B6B03F001030293F1
:1016B000029B4FF4C0630221079300230320CDE96E
:1016C0000813072307A9CDE90A032F4800F046FABB
:1016D0002DB030BD2D4A93421BD10CA80C9500F0C3
:1016E000F9FD08B1FFF732FF264B1A6C42F40032C5
:1016F0001A641A6C02F400320392039A1A6B42F0D5
:1017000001021A631B6B03F001030493049B0C2377
:10171000D1E71F4A9342DBD14FF480730CA80C939E
:1017200000F0D8FD08B1FFF711FF164B002407A900
:1017300018481A6C42F480221A641A6C02F480224F
:101740000592059A1A6B42F002021A634FF4406246
:101750001B6B03F002030693069B0223CDE90723CC
:101760000323CDE9094307230B9300F0F7F9224641
:101770002146272000F004F9272000F033F9A7E7DD
:1017800000100140003802400000024000440040C8
:101790000048004000040240FEE7FEE7FEE7FEE7E7
:1017A000FEE770477047704700F0B4B8014802F098
:1017B0004BB800BF140200200120704708B503F0A9
:1017C000BBF9162303604FF0FF3008BD08B503F0E6
:1017D000B3F916230360FEE770B50D4614460E46B6
:1017E000731B9C4201DC204670BDAFF3008006F8FD
:1017F000010BF5E74FF0FF3070474FF40053002026
:101800004B60704701207047002070470B4A034629
:10181000116810B509B90A491160106809490A4CE4
:101820000344091B8B4206D903F086F90C2303609D
:101830004FF0FF3010BD1360FCE700BF980400209C
:10184000F00500200000042000040000034AD2F844
:10185000883043F47003C2F88830704700ED00E030
:10186000DFF834D0FFF7F2FF0C480D490D4A002392
:1018700002E0D458C4500433C4188C42F9D30A4A45
:101880000A4C002301E013600432A242FBD303F0B0
:1018900059F9FFF769FC70470000042000000020A0
:1018A000D401002018700008D4010020EC050020AD
:1018B000FEE7000038B50E4B05461A784FF47A73F0
:1018C000B3FBF2F30B4A1068B0FBF3F000F098F8AA
:1018D000044658B90F2D09D8024629464FF0FF306B
:1018E00000F04EF8044B20461D6038BD0120FCE797
:1018F00004000020000000200800002008B503209C
:1019000000F02CF80F20FFF7D5FFFFF721FE002095
:1019100008BD0000034A044B11681B780B44136098
:10192000704700BF9C04002004000020014B186891
:10193000704700BF9C04002038B50446FFF7F6FF4F
:101940000546631C1EBF044B1B78E418FFF7EEFF2F
:10195000431BA342FAD338BD040000200749030209
:10196000CA6803F4E06322F4E0621204120C134329
:1019700043F0BF6343F40033CB60704700ED00E0F9
:10198000164B30B5DC68C4F30224C4F10703251DEF
:10199000042B28BF0423062D4FF0FF358CBF033CDA
:1019A000002405FA03F3002805FA04F521EA0303ED
:1019B00022EA050203FA04F343EA02034FEA03139F
:1019C000DBB206DB00F1604000F5614080F80033D7
:1019D00030BD00F00F00024A1354F9E700ED00E0BB
:1019E00014ED00E0002807DB4109012300F01F008F
:1019F000024A834042F82130704700BF00E100E016
:101A00000138B0F1807F0BD24FF0E023054AF0217E
:101A10005861002082F82310072298611A617047EC
:101A20000120704700ED00E0BFF35F8F044B5A6A5E
:101A300022F480325A620022C3F89420704700BF1B
:101A400000ED00E0064B40F00100C3F894005A6A34
:101A500042F480325A62BFF34F8FBFF36F8F7047EB
:101A600000ED00E04378144AC2F89830D2F8A03074
:101A700023F00103C2F8A0304368C2F89C30C37A57
:101A8000017B1B0643EA017301780B43817A43EA29
:101A9000C143417B43EA8143817B43EA4143C17BAC
:101AA00043EA0143417A43EA0123017A43EA4103CD
:101AB000C2F8A030704700BF00ED00E070B50446EA
:101AC000866DFFF733FF054694F83530022B06D0BC
:101AD000802301206365002384F8343070BD2368BF
:101AE0001A6822F016021A605A6922F080025A61BE
:101AF000226C0AB9A26C1AB11A6822F008021A60A4
:101B00001A6822F001021A602368186810F00100B8
:101B100007D1E26D3F239340B360012384F8353051
:101B2000D9E7FFF703FF401B0528EDD92023032049
:101B3000636584F83500CEE790F83530022B03D08A
:101B400080234365012070470268052380F8353003
:101B50000020136823F00103136070472DE9F74F4D
:101B60000023DFF8A491664A01240D689C4004EA32
:101B70000506AC4340F0AF804D6803274FEA430EA3
:101B800005F0030407FA0EFC671E6FEA0C0C012F28
:101B900034D8876807EA0C08CF6807FA0EF747EAD7
:101BA00008078760476827EA0608C5F300179F40C3
:101BB00047EA08074760C768022C07EA0C088F68E5
:101BC00007FA0EF747EA0807C76019D14FEAD308AA
:101BD00003F0070A4FF00F0B00EB88084FEA8A0A60
:101BE000D8F820700BFA0AFB27EA0B0B0F6907FAEB
:101BF0000AF747EA0B07C8F8207001E0032CDAD196
:101C0000076804FA0EF415F4403F07EA0C0744EAAB
:101C1000070404605FD0D9F8444023F0030703F0C1
:101C2000030C4FF00F0E44F4804407F180474FEA55
:101C30008C0CC9F8444007F59C37D9F844400EFA9B
:101C40000CFE04F480440194019CBC6824EA0E0E4E
:101C50002C4CA04246D004F58064A04244D004F548
:101C60008064A04242D004F58064A04240D004F5D4
:101C70008064A0423ED004F58064A0423CD004F5CC
:101C80008064A0423AD004F58064A04214BF0824C6
:101C9000072404FA0CF415F4801F44EA0E04BC6017
:101CA0006FEA060794680CBF3C40344315F4001FEC
:101CB0009460D4680CBF3C40344315F4003FD460BA
:101CC00054680CBF3C403443ED035460146854BF67
:101CD0003C40344314600133102B7FF445AF03B014
:101CE000BDE8F08F0024D4E70124D2E70224D0E736
:101CF0000324CEE70424CCE70524CAE70624C8E77A
:101D0000003C014000000240003802400AB18161FD
:101D100070470904FBE70000194B37B51A6C194CE2
:101D200042F080521A641B6C03F080530193019BB4
:101D3000236843F480332360FFF7F8FD05466368AA
:101D4000DA030CD523680F4D43F400332360FFF70B
:101D5000EDFD04466B689B030AD5002006E0FFF703
:101D6000E5FD401BB0F57A7FE9D9032003B030BD13
:101D7000FFF7DCFD001BB0F57A7FEBD9F5E700BF7C
:101D800000380240007000402DE9F341044640B3A2
:101D90000368DE0710D423689D0761D42368190700
:101DA00000F1A68023685A0700F1C780A269002AC3
:101DB00040F0308100202CE0944B9A6802F00C0235
:101DC000042A07D09A6802F00C02082A0BD15B683B
:101DD000590208D58D4B1B689A03DCD56368002B2C
:101DE000D9D1012015E06368884DB3F5803F13D148
:101DF0002B6843F480332B60FFF798FD834E054634
:101E000033689B03C7D4FFF791FD401B6428F7D9C3
:101E1000032002B0BDE8F0819BB92B6823F4803326
:101E20002B602B6823F480232B60FFF77FFD064691
:101E30002B689F03AFD5FFF779FD801B6428F7D986
:101E4000E6E7B3F5A02F2B6803D143F480232B6082
:101E5000CEE723F480332B602B6823F48023CAE77A
:101E60006A4B9A6812F00C0F07D09A6802F00C02C5
:101E7000082A11D15B685D020ED4644A1368990781
:101E800002D5E368012BACD11368216923F0F80374
:101E900043EAC103136081E7E3685C4DBBB12B6883
:101EA00043F001032B60FFF741FD06462B689B07BB
:101EB00007D52B68226923F0F80343EAC2032B609D
:101EC0006CE7FFF733FD801B0228EFD9A0E72B68F2
:101ED00023F001032B60FFF729FD06462B689F07BF
:101EE0007FF55CAFFFF722FD801B0228F6D98FE754
:101EF0006369464D83B16B6F43F001036B67FFF776
:101F000015FD06466B6F9B073FF54CAFFFF70EFDC7
:101F1000801B0228F6D97BE76B6F23F001036B6708
:101F2000FFF704FD06466B6F9F077FF53BAFFFF79A
:101F3000FDFC801B0228F6D96AE7344B1A6CD500E9
:101F400027D41A6C012742F080521A641B6C03F0EC
:101F500080530193019B2E4D2B68D8051BD5A36898
:101F60002A4D012B27D12B6F43F001032B6741F240
:101F70008838FFF7DBFC254E0546336F9A073FD5BF
:101F8000002F3FF413AF214A136C23F080531364E6
:101F90000CE70027DFE72B6843F480732B60FFF723
:101FA000C5FC06462B68D905D9D4FFF7BFFC801BBA
:101FB0006428F7D92CE7ABB92B6F41F2883823F0AE
:101FC00001032B672B6F23F004032B67FFF7AEFC95
:101FD00006462B6F9B07D3D5FFF7A8FC801B404517
:101FE000F7D915E7052B2B6F03D143F004032B67BB
:101FF000B9E723F001032B672B6F23F00403B5E748
:10200000FFF794FC401B4045B7D901E70038024078
:1020100000700040384DAB6803F00C03082B41D032
:102020002B68022A23F080732B602ED1FFF77EFCF1
:1020300006462B68990122D4A36A5B085A1ED4E98C
:1020400007310B4343EA0243626A43EA8213E26ABE
:1020500043EA026343F000536B602B6843F08073E4
:102060002B60FFF763FC244D04462B689A013FF573
:10207000A1AEFFF75BFC001B0228F6D9C8E6FFF70C
:1020800055FC801B0228D4D9C2E6FFF74FFC04465A
:102090002B689B017FF58EAEFFF748FC001B0228E2
:1020A000F6D9B5E6012A6B683FF49BAE03F48002D3
:1020B000E1698A427FF495AE03F03F02216A8A42C9
:1020C0007FF48FAE47F6C072616A1A40B2EB811F8F
:1020D0007FF487AEA26A03F440315208013AB1EBB3
:1020E000024F7FF47EAEE26A03F07063B3EB026FDF
:1020F00014BF012000208CE600380240134908B5C7
:102100008B6803F00C03042B1BD0082B1BD14A68EF
:102110004B68496802F03F0213F48003C1F3881151
:102120001ABF0B4800230B48A1FB0001FEF764FD1A
:10213000064B5B68C3F3014301335B00B0FBF3F074
:1021400008BD0348FCE70348FAE700BF0038024037
:10215000C0FC9B010024F4002DE9F0410D4604462B
:1021600010B90120BDE8F081454A136803F00F0360
:102170008B4228D321688F0730D4C80743D4404A04
:10218000136803F00F03AB4266D8226851076FD47F
:10219000130707D53B4A2169936823F4604343EA58
:1021A000C1039360FFF7AAFF364B374A9B68C3F31E
:1021B0000313D35CD840354B1860354B1868FFF7D4
:1021C00079FB0020CEE7136823F00F030B43136065
:1021D000136803F00F038B42C3D1CBE711F0040F58
:1021E000284B03D09A6842F4E0529A600E0703D558
:1021F0009A6842F460429A609A68A06822F0F002FD
:1022000002439A60B9E761681E4B01291A681BD125
:1022100012F4003FA5D09A6841F28838194F22F095
:1022200003020A439A60FFF781FB0646BB686268B7
:1022300003F00C03B3EB820FA1D0FFF777FB801BF9
:102240004045F3D903208DE7022902D112F0007F27
:10225000E0E712F0020FDDE7136823F00F032B43D2
:102260001360136803F00F03AB427FF47AAF8CE77F
:102270000449E0688B6823F4E05303438B6087E7ED
:10228000003C024000380240516C00080000002071
:1022900008000020044B054A9B68C3F38223D35CEB
:1022A000034A1068D840704700380240496C000863
:1022B00000000020044B054A9B68C3F34233D35C03
:1022C000034A1068D840704700380240496C000843
:1022D0000000002003682DE9F74313F001060446CF
:1022E0000BD0AC4A916821F400019160C66A9168F4
:1022F0003143B6FA86F67609916013F4002512D0C0
:10230000A449656BD1F88C20B5F5801F22F44012EA
:1023100008BF012642EA050216BFB5FA85F5002579
:102320006D09C1F88C20D90210D59A48A16BD0F85C
:102330008C20B1F5800F22F4400242EA0102C0F87D
:102340008C2000F04C81002908BF01259A0632D567
:10235000904B914F1A6C42F080521A641B6C03F040
:1023600080530193019B3B6843F480733B60FFF70C
:10237000DDFA80463B68DB0540F13381854FA26A78
:102380003B6F13F4407340F03781A36A03F440724B
:10239000B2F5407F7F4A40F05481916823F070404D
:1023A00021F4F81120F4407001439160C3F30B0352
:1023B000116F0B4313672368DA060CD5754AD2F800
:1023C0008C1021F08071C2F88C10D2F88C10206B28
:1023D0000143C2F88C105F0408D56E49E06DD1F856
:1023E000902022F440320243C1F89020180408D50E
:1023F0006849206ED1F8902022F440220243C1F8AF
:102400009020D90308D56349606ED1F8902022F45A
:1024100040120243C1F890205A0608D55D49E06B8E
:10242000D1F8902022F003020243C1F890201F0649
:1024300008D55849206CD1F8902022F00C020243B4
:10244000C1F89020D80508D55249606CD1F8902089
:1024500022F030020243C1F89020990508D54D4979
:10246000A06CD1F8902022F0C0020243C1F8902065
:102470005A0508D54749E06CD1F8902022F4407203
:102480000243C1F890201F0508D54249206DD1F8BC
:10249000902022F440620243C1F89020D80408D56D
:1024A0003C49606DD1F8902022F440520243C1F8BB
:1024B0009020990408D53749A06DD1F8902022F4D6
:1024C00040420243C1F890209A020CD53148616F16
:1024D000D0F89020B1F1006F22F0006208BF012512
:1024E0000A43C0F890205F0308D52A49E06ED1F86E
:1024F000902022F040720243C1F89020180208D5C3
:102500002449A06FD1F8902022F080520243C1F8F4
:102510009020590108D51F49E06FD1F8902022F092
:1025200000520243C1F89020002E40F08E809A01A4
:1025300000F18B80012D50D1164D2B6823F0805374
:102540002B60FFF7F3F906462B689F0000F1E0804F
:1025500021680D0301D5636B1BB1C8021ED5A36BA7
:10256000E3B90C4AD4E90453D2F888001B0600F4FE
:10257000403043EA85130343C2F88830D2F88C30E8
:10258000206A23F4F853013843EA0023C2F88C3060
:1025900004E000BF00380240007000408A0210D5FD
:1025A000636FB3F1006F0CD16049A369D1F8882043
:1025B00020691B0402F0706243EA80131343C1F8E0
:1025C00088305A4C236843F080532360FFF7AEF9FC
:1025D000054623689B0040F1A280002009E0012607
:1025E000B4E6FFF7A3F9A0EB080064287FF6C2AEBB
:1025F000032003B0BDE8F08302F4407293423FF43D
:10260000C4AE3B6F3A6F23F4407342F480323A67B2
:102610003A6F22F480323A673B673B6FD8077FF509
:10262000B4AEFFF783F941F2883980463B6F9907D2
:102630003FF5ABAEFFF77AF9A0EB08004845F5D9B6
:10264000D6E7916821F4F811AFE6384E336823F0ED
:1026500080633360FFF76AF9074633681B0151D482
:102660002268D7070DD5E36A5BB9D6F88410D4E9A0
:10267000010301F070611B0743EA80130B43C6F8A6
:102680008430100303D5636BB3F5801F05D0D102EE
:1026900019D5A36BB3F5800F15D12449E368D1F8A0
:1026A000840066681B0600F0E04043EA861303439B
:1026B000C1F88430D1F88C00E36920F01F00013BA1
:1026C0000343C1F88C3092010AD5E36862681B06A7
:1026D00043EA8213A26843EA0273144AC2F88430C0
:1026E000124E336843F080633360FFF71FF90746EB
:1026F00033681B013FF51EAFFFF718F9C01B6428B4
:10270000F6D975E7FFF712F9C01B6428A5D96FE762
:10271000FFF70CF9801B64287FF616AF68E7FFF718
:1027200005F9401B64287FF654AF61E7003802408A
:10273000F7B50E4614460546FFF7F8F83444241A58
:10274000FFF7F4F8214B07461B68C3F3CB33634311
:1027500001932A68906810F080002DD0731CF9D086
:10276000FFF7E4F8C01BA04228D32B685A6822F078
:10277000E0025A606A68B2F5827F0AD1AA68B2F5AF
:10278000004F02D0B2F5806F03D11A6822F04002E8
:102790001A60AA6AB2F5005F07D11A6822F40052E3
:1027A0001A601A6842F400521A600123032085F867
:1027B0005D30002385F85C3003B0F0BD019B13B1A0
:1027C000019B013BC4E71C46C3E700BF000000209B
:1027D0002DE9F74317461D46002304463D440E46A7
:1027E0008DF80330FFF7A2F82D1AFFF79FF8284B5A
:1027F00023228046D4F800901B6853431B0D6B4383
:10280000019322689068304038D0B6F5C06F06D189
:1028100099F80C30DBB28DF803309DF803307B1C47
:10282000F0D0FFF783F8A0EB0800A84229D3236873
:102830005A6822F0E0025A606268B2F5827F0AD1DB
:10284000A268B2F5004F02D0B2F5806F03D11A68CA
:1028500022F040021A60A26AB2F5005F07D11A683E
:1028600022F400521A601A6842F400521A600123DE
:10287000032084F85D30002384F85C3003B0BDE8A9
:10288000F083019B13B1019B013BB9E71D46B8E7FB
:10289000000000204368B3F5827F73B504460D46FF
:1028A000164612D0204B214A1B68B3FBF2F34FF4BB
:1028B0007A7253430193019BEBB1019B013B01935E
:1028C00023689B681B06F6D415E08368B3F5004FB8
:1028D00002D0B3F5806F04D12268136823F040035F
:1028E0001360324629462046FFF722FFB0B96368DD
:1028F000B3F5827F02D0002002B070BDA368B3F5AB
:10290000004F02D0B3F5806FF5D133462A464FF41D
:10291000C0612046FFF75CFF0028ECD0236E032047
:1029200043F020032366E7E70000002000366E0135
:1029300073B513460D4616460A464FF4C051044679
:10294000FFF746FF30B1236E032043F020032366D8
:1029500002B070BD144B154A1B68B3FBF2F34FF481
:102960007A72534301936368B3F5827F10D1324684
:1029700029462046FFF7DCFE0028E4D133462A46EC
:102980004FF4C0612046FFF723FF0028E0D0DAE7CC
:10299000019B002BF2D0019B013B019323689B68B4
:1029A0001B06F5D4EAE700BF0000002000366E01E8
:1029B00070B50446002867D0436A002B5DD1426899
:1029C000B2F5827F00D0C3610023A36294F85D302A
:1029D00003F0FF0223B9204684F85C20FEF7D0FD07
:1029E00002232268E06884F85D301368B0F5E06F78
:1029F00023F0400313604FF0000342D91D46B0F5A9
:102A0000706F18BFA36200F470606368A66803F477
:102A10008273A16906F404463343266906F0020670
:102A20003343666906F00106334301F40076090C6E
:102A30003343E66901F0040106F038063343266AA1
:102A400006F080063343A66A06F400563343666BED
:102A5000136006F00806636A03F010033343034370
:102A600000200B432B435360D36923F40063D361ED
:102A70000123206684F85D3070BD0023C0E9043373
:102A8000A2E74FF48055BCE70120F5E72DE9F743B5
:102A900004461F460D469046FEF748FF94F85D3009
:102AA0008146012BD8B240F0B580002D76D0B8F128
:102AB000000F73D094F85C30012B00F0AB8003233F
:102AC000266884F85C0084F85D300023A5632366E3
:102AD0002364A4F83E80A4F84430A4F84630A4F857
:102AE0003C80C4E91333A368B3F5004F07D13368C2
:102AF00023F040033360336843F48043336033682A
:102B00005B0603D4336843F040033360E2686368D4
:102B1000B2F5E06F45D913B1B8F1010F07D135F81F
:102B2000023BF360A563E38F013B9BB2E387E38F36
:102B30009BB2D3B94A4639462046FFF7F9FE002832
:102B400065D1A36833B901932368DA6801929B6861
:102B50000193019B012384F85D300023206E84F8EB
:102B60005C30C01A18BF012018E0226893689D07E6
:102B700005D5A36B33F8021BD160A363D3E7FEF73F
:102B8000D5FEA0EB0900B842D1D3781CCFD00123E9
:102B9000032084F85D30002384F85C3003B0BDE886
:102BA000F08313B1B8F1010F13D1E38F9BB2012B66
:102BB00006D935F8023BF360A563E38F023B06E0DC
:102BC0002B783373A36B0133A363E38F013B9BB279
:102BD000E387E38F9BB2002BACD022689368990700
:102BE0000CD5E18FA36B89B2012904D933F8021BFC
:102BF000D160A363E1E71B781373E3E7FEF796FE6A
:102C0000A0EB0900B842E4D37B1CE2D0BFE720234D
:102C1000236696E70220C1E72DE9F84304460D46F6
:102C200091461E46089FFEF781FE94F85D2080467F
:102C30006368012AD1B20AD0B3F5827F40F01D81CA
:102C4000A268002A40F01981042940F01681002D65
:102C500055D0B9F1000F52D0002E50D094F85C201E
:102C6000012A00F00A81012284F85C2094F85D209A
:102C7000042A02D0052284F85D20E0680022216841
:102C8000B0F5E06F2266C4F84090A4F84660A4F85E
:102C90004460E687A563A687C4E913224A6801D881
:102CA000012E2ED022F480524A600A68520603D4C4
:102CB0000A6842F040020A60B0F5E06F5BD90BB1E0
:102CC000012E07D135F8023BCB60E38FA563013BB2
:102CD0009BB2E3870125E38F9BB2ABB9B4F84630D2
:102CE0009BB28BB9424639462046FFF721FE0028A9
:102CF00000F0B98020232366002384F85C30012093
:102D000037E042F48052CFE721688B689E070DD5EB
:102D1000E38F9BB253B145B1A36B33F8022BCA606A
:102D2000A363E38F013B9BB2E38700258A6812F01F
:102D300001020FD0B4F846309BB25BB1C9681546AA
:102D4000236C23F8021B2364B4F84630013B9BB28A
:102D5000A4F84630FEF7EAFDA0EB0800B842BAD36B
:102D6000781CB8D00123032084F85D30002384F858
:102D70005C30BDE8F8830BB1012E0BD1E38F9BB221
:102D8000012B09D935F8023BCB60E38FA563023BE9
:102D90009BB2E387012548E02B780B73A36B0133CB
:102DA000A363E38F013BF3E722689368990711D58A
:102DB000E38F9BB273B165B1E18FA36B89B2012937
:102DC0003DD933F8021BD160A363E38F023B9BB272
:102DD000E38700252268916811F001011DD0B4F845
:102DE00046309BB2CBB1B4F84600236C80B20128C8
:102DF0002DD9D06823F8020B2364B4F84630023B87
:102E00009BB2A4F84630B4F846309BB2012B03D8ED
:102E1000536843F4805353600D46FEF787FDA0EBE3
:102E20000800B84201D37B1C9CD1E38F9BB2002BDE
:102E3000BAD1B4F846309BB2002BB5D152E71B781B
:102E40001373A36B0133A363E38F013BBFE7127BD3
:102E50001A70236C01332364B4F84630013B9BB2F3
:102E6000A4F84630D8E7012384F85C0084F85D308C
:102E7000206E003818BF01207BE7022079E72DE99A
:102E8000F7431E4690F85D3004468946012B1746ED
:102E9000DDB204D00225284603B0BDE8F083002946
:102EA000F9D0002AF7D04368B3F5827F0BD183684D
:102EB0004BB9042380F85D30134600960A46FFF7AD
:102EC000ABFE0546E7E7FEF731FD94F85C3080463F
:102ED000012BDFD001230025E26884F85C30042355
:102EE000A563B2F5E06F84F85D30A5872566A4F888
:102EF0004670E587C4F84090A4F84470C4E91355BF
:102F000025686B688CBF23F4805343F480536B6057
:102F1000A368B3F5004F07D12B6823F040032B6063
:102F20002B6823F480432B602B685F0603D42B6847
:102F300043F040032B60B2F5E06F23D9B4F846307C
:102F40009BB223B323689A68D20741D5DA68236C11
:102F500023F8022B2364B4F84630013B9BB2A4F85B
:102F60004630EBE723689A68D00721D51B7B226C9B
:102F70001370236C01332364B4F84630013B9BB2D9
:102F8000A4F84630B4F846309BB2002BEAD1424652
:102F900031462046FFF77EFC18BB012384F85D30E4
:102FA0000023256E84F85C30ED1A18BF012572E706
:102FB000FEF7BCFCA0EB0800B042E3D3711CE1D0EB
:102FC0000123032584F85D30002384F85C3062E738
:102FD000FEF7ACFCA0EB0800B042AFD3731CADD041
:102FE000EEE720232366D8E7036A026A23F0020390
:102FF00022F0010270B50262456882690C6822F411
:10300000803222F0730222438C682343104CA0428A
:1030100003D004F58064A04214D1046A23F00803AD
:1030200024F004040462CC682343094CA04203D07A
:1030300004F58064A04205D125F44075D1E9054628
:1030400034432543456082614A684263036270BD30
:1030500000000140036A026A23F4007322F48072C4
:1030600070B502624568C2690C6822F4803222F0B1
:10307000730222438C6843EA0423124CA04203D01B
:1030800004F58064A04216D1046A23F4006324F49A
:1030900080640462CC6843EA04230A4CA04203D053
:1030A00004F58064A04206D125F44055D1E90546D7
:1030B000344345EA04154560C2614A68C26303624D
:1030C00070BD00BF00000140026A036A22F4005292
:1030D00023F4805330B503624468C3690D6823F05C
:1030E000807323F4E64343EA05238D6842EA053200
:1030F000084DA84203D005F58065A84204D124F408
:1031000080444D6944EA85144460C3614B6803649C
:10311000026230BD00000140026A036A22F40032FC
:1031200023F4803330B503624468436D0D6823F4A3
:10313000803323F070032B438D6842EA0542094D2A
:10314000A84203D005F58065A84204D124F4803458
:103150004D6944EA0524446043654B688365026217
:1031600030BD00BF00000140026A036A22F4001271
:1031700023F4801330B503624468436D0D6823F077
:10318000807323F4E04343EA05238D6842EA055245
:10319000084DA84203D005F58065A84204D124F467
:1031A00080244D6944EA8524446043654B68C365C7
:1031B000026230BD00000140036A10B5046A24F0C9
:1031C000010404620A4CA04203D004F58064A042CA
:1031D00003D1046A24F004040462846923F00A031E
:1031E00024F0F004194344EA02128261016210BD26
:1031F00000000140036A10B5046A24F01004046260
:103200000B4CA04203D004F58064A04203D1046AB1
:1032100024F040040462846923F0A00324F4704481
:1032200043EA011144EA02328261016210BD00BF2B
:103230000000014070470000324A0368904212D0FB
:10324000B0F1804F0FD0A2F57C4290420BD002F536
:103250008062904207D002F58062904203D002F56E
:103260007842904219D14A6823F070031343254AEB
:10327000904229D0B0F1804F26D0A2F57C429042F6
:1032800022D002F5806290421ED002F58062904208
:103290001AD002F57842904216D01B4A904213D0C1
:1032A00002F5806290420FD002F5806290420BD00E
:1032B000A2F59832904207D002F58062904203D086
:1032C00002F58062904203D123F44073CA6813432D
:1032D0004A6923F0800313438A68C2620A688262E3
:1032E000084A904203D002F58062904201D10A69F7
:1032F0000263026842F0040202600122426103603C
:10330000704700BF000001400040014010B5044676
:1033100050B390F83D3003F0FF021BB980F83C2019
:10332000FEF760F902232068211D84F83D30FFF785
:1033300083FF0123002084F8483084F83E3084F86D
:103340003F3084F8403084F8413084F8423084F8CB
:10335000433084F8443084F8453084F8463084F8AB
:10336000473084F83D3010BD0120FCE710B504461D
:1033700050B390F83D3003F0FF021BB980F83C20B9
:10338000FFF758FF02232068211D84F83D30FFF726
:1033900053FF0123002084F8483084F83E3084F83D
:1033A0003F3084F8403084F8413084F8423084F86B
:1033B000433084F8443084F8453084F8463084F84B
:1033C000473084F83D3010BD0120FCE7036A026AF3
:1033D00023F0200322F0100270B502624568826972
:1033E0000C6822F0807222F4E64242EA04228C68E1
:1033F00043EA0413114CA04203D004F58064A042B8
:1034000016D1046A23F0800324F040040462CC68DF
:1034100043EA0413094CA04203D004F58064A0429F
:1034200006D125F44065D1E90546344345EA8405D3
:10343000456082614A688263036270BD000001409A
:1034400038B590F83C300446012B73D001200C2A8B
:1034500084F83C004ED008D8042A2BD0082A39D052
:10346000BAB1002384F83C3038BD102A52D0142A57
:10347000F7D12068FFF778FE0A69436D43F40063D3
:103480004365436D23F480634365436D43EA022340
:103490004EE02068FFF7A8FD0A69836943F008033E
:1034A0008361836923F00403836183691343836128
:1034B0000020D6E72068FFF789FF0A69836943F493
:1034C00000638361836923F480638361836943EAD2
:1034D0000223ECE72068FFF7BDFD0A69C36943F0EA
:1034E0000803C361C36923F00403C361C3691343C1
:1034F000C361DDE72068FFF7E7FD0A69C36943F4AC
:103500000063C361C36923F48063C361C36943EA91
:103510000223EDE72068FFF7FFFD0A69436D43F0E2
:1035200008034365436D23F004034365436D134370
:103530004365BDE7022097E70A4310B5846842EA75
:10354000032224F47F442243826010BD38B590F8F2
:103550003C3004460220012B63D084F83D00012258
:10356000206884F83C20304B85682B4083600B68D2
:10357000602B42D025D8402B49D016D8202B0DD017
:103580000AD833F0100109D0012384F83D3000231C
:1035900084F83C30104638BD302BF5D1826822F0DB
:1035A0007002134343F007031BE0502BECD1CA68B1
:1035B0004968FFF701FE836823F0700343F0570367
:1035C0000FE0B3F5805F0DD0B3F5005F0CD0702B2A
:1035D000DAD1CB68D1E90121FFF7AEFF836843F070
:1035E000770383600022CFE7CB68D1E90121FFF7A1
:1035F000A3FF836843F48043F3E7CA684968FFF791
:10360000F9FD836823F0700343F06703E9E7CA68B4
:103610004968FFF7D1FD836823F0700343F0470347
:10362000DFE70246B6E700BF8800FEFF01F01F019A
:10363000036A10B501248A408C4023EA0403036224
:10364000036A1A43026210BD082908B518D005D8CC
:1036500059B1042911D090F8433008E00C2912D058
:103660001029F8D190F8423001E090F83E30013B4B
:1036700018BF012353B1012030E090F83F30F6E746
:1036800090F84030F3E790F84130F0E708294FF028
:10369000020327D006D861B1042920D0022380F884
:1036A000433008E00C2920D01029F7D180F84230AF
:1036B00001E080F83E3000680122FFF7B7FF204AA2
:1036C000904215D01F4B984212D0B0F1804F16D1C6
:1036D00082681D4B1340062B2DD1002008BD80F8B9
:1036E0003F30E8E780F84030E5E780F84130E2E736
:1036F000436C904243F400434364E9D0E5E7134B45
:103700009842E5D003F580639842E1D003F58063E9
:103710009842DDD003F578439842D9D003F5705331
:103720009842D5D0A3F594339842D1D0036843F0A2
:1037300001030360D1E7B3F5803FF7D1CDE700BFC8
:1037400000000140000401400700010000040040A7
:10375000FFF77ABF70B590F83C3004460220012B89
:103760003BD023681D4D84F83D00AB425A689868F1
:1037700002D01B4EB34203D122F470024E68324392
:103780000E6822F07002AB4242EA06025A6019D07B
:10379000B3F1804F16D0134A934213D002F58062E2
:1037A00093420FD002F5806293420BD002F578422B
:1037B000934207D002F57052934203D0A2F594329F
:1037C000934204D1896820F080020A439A60012361
:1037D000002084F83D3084F83C0070BD00000140BA
:1037E0000004014000040040026852E8003F23F456
:1037F000907342E8003102680029F5D102F1080314
:1038000053E8003F23F0010302F1080C4CE80031BB
:103810000029F3D1036E012B07D152E8003F23F0BA
:10382000100342E800310029F7D12023C0F880308E
:10383000002303668366704770477047806B08B546
:10384000FFF7FBFF08BD7047036870B5DA6940F603
:103850000F061968044632429D680BD1960640F166
:1038600088808D0640F18580836E002B7BD0BDE87B
:103870007040184705F00100964D0D40054378D083
:10388000D60709D5CD0507D501251D62D4F884508A
:1038900045F00105C4F88450960708D538B10225D3
:1038A0001D62D4F8845045F00405C4F884505507CF
:1038B00008D538B104251D62D4F8845045F00205BE
:1038C000C4F8845016070BD501F02005054307D036
:1038D00008201862D4F8840040F00800C4F884007E
:1038E00015050AD5480108D54FF400601862D4F8D0
:1038F000843043F02003C4F88430D4F88430002BA3
:1039000031D0920605D58B0603D5A36E0BB12046A8
:10391000984726682046D4F88420B36802F028022D
:1039200003F0400353EA02051ED0FFF75DFFB368C2
:103930005E0615D5226802F1080353E8003F23F024
:103940004003083242E800310029F3D1606F38B1FA
:10395000614B0365FEF7F0F828B1606F036D86E7F1
:103960002046FFF76AFF70BDFFF767FFC4F8845079
:10397000F9E7206E012840F08D80D50640F18A805D
:10398000C80640F1878010221A629968B4F858205E
:10399000490651D5606F0168496889B2002942D053
:1039A000914240D2C269A4F85A10B2F5807F2ED05D
:1039B00053E8002F22F4807243E800210029F7D158
:1039C00003F1080252E8002F22F0010203F108007F
:1039D00040E800210029F3D103F1080252E8002F4A
:1039E00022F0400203F1080040E800210029F3D151
:1039F0002022C4F88020216653E8002F22F0100214
:103A000043E800210029F7D1606FFEF757F8022341
:103A1000B4F858106366B4F85A30C91A89B220460F
:103A2000FFF711FF9FE791429DD1C369B3F5807FF6
:103A300099D102236366F2E7B4F85A10B4F85A0039
:103A400089B280B200288ED0511A89B200298AD05A
:103A500053E8002F22F4907243E800200028F7D1A9
:103A600003F1080252E8002F22F0010203F10805D9
:103A700045E800200028F3D12022A066C4F8802069
:103A8000206653E8002F22F0100243E800200028AF
:103A9000F7D1CEE7160607D50D0605D5E36E002B48
:103AA0003FF461AF2046E2E650067FF55CAF4A0680
:103AB0007FF559AF53E8002F22F0400243E8002180
:103AC0000029F7D120232046E166E367FFF7B4FE23
:103AD00049E700BF200100043D38000838B504461E
:103AE000C0692169A26823680A4361691D680A43A5
:103AF0007D4902432940256A0A43E1681A605A68F1
:103B000022F440520A435A60A26999682A4321F478
:103B100030610A439A60754A934213D1744BD3F8CB
:103B2000903003F00303022B00F0A880032B21D078
:103B3000012B40F0BD80B0F5004F40F09C80FEF7B7
:103B4000DDFA92E06B4A93421BD1694BD3F8903077
:103B500003F00C03082B00F0918009D8002B00F033
:103B6000AD80042BE7D001200023C4E91A3338BD0F
:103B70000C2BF8D1B0F5004F00F084804FF40040DA
:103B8000A3E05D4A93420ED1594BD3F8903003F035
:103B90003003202B72D004D8002B00F08F80102B24
:103BA000E0E7302BE5E7554A93420DD1504BD3F86F
:103BB000903003F0C003802B60D003D8002B7DD061
:103BC000402BCFE7C02BD4E74D4A934210D1484B4E
:103BD000D3F8903003F44073B3F5007F4ED004D88F
:103BE000002B6BD0B3F5807FBCE7B3F5407FC0E717
:103BF000444A934210D13E4BD3F8903003F44063D3
:103C0000B3F5006F3AD004D8002B51D0B3F5806FD4
:103C1000A8E7B3F5406FACE73B4A934210D1344B71
:103C2000D3F8903003F44053B3F5005F26D004D8A6
:103C3000002B43D0B3F5805F94E7B3F5405F98E77E
:103C4000324A93428FD12A4BD3F8903003F4404349
:103C5000B3F5004F12D003D883B3B3F5804F81E79B
:103C6000B3F5404F85E7FEF715FB58B900207BE719
:103C7000FEF720FB27E0FEF741FA24E0B0F5004F05
:103C8000234822D16268530803EB4003B3FBF2F3ED
:103C90004FF6EF72A3F1100191423FF664AF23F0AB
:103CA0000F02C3F34203216892B21343CB60DDE7F6
:103CB000B0F5004FDCD1FEF7FDFAD6E7B0F5004FC6
:103CC000D1D0FEF7E7FA0028D0D0626800EB5203AB
:103CD000B3FBF2F34FF6EF72A3F1100191423FF6FE
:103CE00042AF2268D360C1E7F369FFEF00100140E3
:103CF000003802400044004000480040004C0040B2
:103D0000005000400014014000780040007C00405A
:103D10000024F400436A1A0710B506D50168446B05
:103D20004A6822F4004222434A60DC0706D5016853
:103D3000846A4A6822F4003222434A60990706D511
:103D40000168C46A4A6822F4803222434A605A07F2
:103D500006D50168046B4A6822F4802222434A6037
:103D6000DC0606D50168846B8A6822F480522243FF
:103D70008A60990606D50168C46B8A6822F40052ED
:103D800022438A605A0610D50168046C4A68B4F56B
:103D9000801F22F4801242EA04024A6005D14A6878
:103DA000446C22F4C00222434A601B0606D5026816
:103DB000816C536823F400230B43536010BD2DE93D
:103DC000F843DDF8209004460D46174698462268D1
:103DD000D36935EA03030CBF01230023BB4201D0A2
:103DE000002022E0B9F1FF3FF2D0FDF79FFDA0EBEC
:103DF0000800484529D8B9F1000F26D021680B6882
:103E00005A07E4D5802DE2D0402DE0D0CE6916F0DF
:103E100008060CD0082520460D62FFF7E5FC0023BC
:103E20000120C4F8845084F87830BDE8F883CB6969
:103E30001B05CCD54FF4006320460B62FFF7D4FC82
:103E4000202384F87860C4F884300320EDE72DE95E
:103E5000F7439846C36F04460E46202B17464AD1B7
:103E600019B9012003B0BDE8F083002AF9D021235D
:103E70000025C0F88450C367FDF758FDA36881464C
:103E8000A4F85070B3F5805FA4F8527003D1236991
:103E90000BB935461E46B4F852204B46CDF800808B
:103EA00092B242B940212046FFF789FF2023E36701
:103EB0000028D7D007E0002280212046FFF77FFFAF
:103EC00018B12023E3670320CCE7226886B935F8D0
:103ED000023BC3F308039362E36F03F02103212B3A
:103EE000BFD1B4F85220013A92B2A4F85220D2E7DE
:103EF00016F8013BEFE70220B4E737B5002504468A
:103F0000C0F88450FDF712FD2268034612681207BC
:103F10001AD56FF07E424FF40011204600922A46D7
:103F2000FFF74DFF80B1226852E8003F23F0800385
:103F300042E800310029F6D120230320E367002363
:103F400084F8783003B030BD20230020E367C4F844
:103F5000803020666066F2E710B5044640B3C36F58
:103F60001BB980F87830FDF777FB24232268E367DC
:103F7000136823F001031360636A13B12046FFF74F
:103F8000C9FE2046FFF7AAFD012811D0236820466C
:103F90005A6822F490425A609A6822F02A029A6083
:103FA0001A6842F00102BDE810401A60FFF7A5BF91
:103FB000012010BD2DE9FF4757EC106B002F0C4678
:103FC00019463B46BBBF07F100431F4600232D2384
:103FD0000B700D9BDDF830A0914623F02008BCBF8C
:103FE00032461646B8F1460F05D0B8F1450F00D15C
:103FF0000134022100E0032103AB019302AB0093E3
:1040000047EC106B5346224600F04EFEB8F1470FC6
:10401000054619D119F0010F0ED000EB040900225A
:10402000002330463946FCF777FD08B1CDF80C90F7
:104030003022039B4B451ED3039B0E9A5B1B2846E5
:10404000136004B0BDE8F087B8F1460F00EB040937
:10405000E5D10378302B0AD10022002330463946BF
:10406000FCF75AFD18B9C4F10104CAF80040DAF8A7
:1040700000309944D3E7591C03911A70D9E7F7B57A
:104080000029BABF49422D232B230929027043700E
:1040900029DD0DF107031D460A271A46B1FBF7F685
:1040A00007FB1614303402F8014C0C46632C03F164
:1040B000FF333146F1DC3031941E03F8011C411C02
:1040C0002346AB420AD30DF109039B1AAC4288BFC9
:1040D000002302330344181A03B0F0BD13F8016B38
:1040E00001F8016FEDE7302330318370C170031D9B
:1040F000F1E700002DE9F04F8DB00C46DDF8588057
:1041000016461F46054600F0CDFC0368049318468A
:10411000FCF7D6F800230A93D8F80030059007334F
:1041200023F0070303F1080294F818A0D4F800B0B4
:10413000C8F80020D3E9008929F000430793CDF89F
:104140001880C4E91289DDE906019C4B4FF0FF326B
:10415000FCF714FD70BBDDE90601984B4FF0FF3210
:10416000FCF7EEFC30BB0022002340464946FCF73A
:10417000DDFC10B12D2384F84330914A914BBAF104
:10418000470F94BF90469846032323612BF0040306
:1041900023604FF00009009733460BAA21462846BA
:1041A00000F0D2F9013040F08D804FF0FF300DB0BB
:1041B000BDE8F08F42464B4640464946FCF7DEFCE0
:1041C00040B14B46002BBCBF2D2384F843307E4AC0
:1041D0007E4BD4E763680AF0DF0206925A1C3BD19B
:1041E000062363604BF480620023226003930AABD2
:1041F000CDE901A309AB0093616849EC108B0DF187
:1042000023032846FFF7D6FE069B0999472B8046D5
:1042100029D1C81C02DB6368994241DDAAF1020A78
:104220005FFA8AFA0139524604F150000991FFF70A
:1042300026FF0A9A1318012A8146236102DC2268AC
:10424000D20701D5013323619DF82330002BA2D082
:104250002D2384F843309EE7069A472AC2D1002BCB
:10426000C0D10123BDE7BAF1650FDBD9BAF1660F02
:1042700018D1002963680BDD216113B92268D007CA
:1042800002D501330B442361A1654FF00009DBE740
:1042900013B92268D20701D50233F4E70123F2E70C
:1042A0004FF0670A0A9B994205DB23682161D80712
:1042B000EAD54B1CE7E70029D4BFC1F10202012275
:1042C0001344E0E723685A0507D423694246314680
:1042D0002846B84701302BD167E7BAF1650F40F2A5
:1042E000DD80D4E9120100220023FCF715FC002830
:1042F00033D0374A012331462846B84701303FF4CE
:1043000054AFDDE90938434502DB2368D8070FD5F0
:10431000DDE9042331462846B84701303FF445AF74
:104320004FF0000908F1FF3804F11A0AC84509DC0A
:1043300023689B0700F10381E0680B9B9842B8BF9C
:10434000184634E70123524631462846B847013023
:104350003FF42BAF09F10109E8E7099B002B39DC99
:104360001B4A012331462846B84701303FF41DAFB0
:10437000DDE9093959EA030302D12368D907D7D502
:10438000DDE9042331462846B84701303FF40DAF3C
:104390004FF0000A04F11A0B099B5B42534501DC04
:1043A0004B4693E701235A4631462846B847013029
:1043B0003FF4FBAE0AF1010AEEE700BFFFFFEF7F1B
:1043C000616C0008656C0008696C00086D6C000881
:1043D000716C0008A36DDDF828A05345A8BF5346B3
:1043E000002B994636DC4FF0000B29EAE97904F1FD
:1043F0001A02A36D0693A3EB09035B4531DC099B0D
:104400009A453ADC2368DA0737D4099BAAEB0309FB
:10441000069BAAEB03039945A8BF9946B9F1000F83
:1044200033DC4FF0000829EAE97904F11A0B099B03
:10443000AAEB0303A3EB090343457FF779AF0123FD
:104440005A4631462846B84701303FF4AEAE08F12F
:104450000108ECE7424631462846B8470130C2D150
:10446000A3E60123314628460692B84701303FF4BF
:104470009CAE069A0BF1010BBBE7DDE90423314644
:104480002846B8470130C0D18FE6069A4B464244D1
:1044900031462846B8470130C3D186E6DDF828A06A
:1044A000BAF1010F01DCDB0736D501234246314664
:1044B0002846B84701303FF478AEDDE904233146A1
:1044C0002846B84701303FF470AED4E9120100220B
:1044D00000230AF1FF3AFCF71FFBC0B9534608F16D
:1044E000010231462846B84701300CD15DE6012370
:1044F0005A4631462846B84701303FF456AE08F1D7
:104500000108D045F3DB4B4604F15002DFE64FF0E3
:10451000000804F11A0BF4E701234246E1E7012306
:104520004A4631462846B84701303FF43EAE08F1CE
:104530000108E3680B995B1A4345F0DCFCE64FF099
:10454000000804F11909F4E72DE9F04716469846EA
:104550008A680B69DDF820909342B8BF1346336038
:1045600091F8432007460C460AB1013333602368B3
:10457000990642BF336802333360256815F006059B
:1045800006D104F1190AE36832689B1AAB4226DCB3
:1045900094F843302268003B18BF012392062BD4C5
:1045A00004F1430241463846C84701301ED0236813
:1045B000226903F00603042B02BFE5683368ED1A95
:1045C000A3680CBF25EAE57500259342C4BF9B1A7A
:1045D000ED1800261A34B5421AD1002008E0012354
:1045E000524641463846C847013003D14FF0FF30AC
:1045F000BDE8F0870135C6E7E1185A1C302081F884
:104600004300224494F8451082F843100233C7E770
:104610000123224641463846C8470130E6D00136DC
:10462000D9E700002DE9FF470F7E0C9E782F9146B9
:1046300080460C469A4601F1430207D8622F0AD8F9
:10464000002F00F0D280582F00F0B98004F142060C
:1046500084F842703AE0A7F16303152BF6D801A164
:1046600051F823F0BD460008D14600084D46000829
:104670004D4600084D4600084D460008D14600084A
:104680004D4600084D4600084D4600084D460008BE
:10469000D1470008FB4600088B4700084D4600083C
:1046A0004D460008F34700084D460008FB46000849
:1046B0004D4600084D4600089347000833681A1D10
:1046C0001B68326004F1420684F8423001239DE009
:1046D00033682068191D3160060601D51D6803E0A6
:1046E0004506FBD5B3F90050002D03DA2D236D42AA
:1046F00084F8433059480A2311E0216833680806DA
:1047000053F8045B02D4490648BFADB26F2F53483B
:10471000336014BF0A230823002184F8431066681D
:10472000A660002EA2BF216821F0040121600DB90E
:10473000002E4BD01646B5FBF3F103FB1157C75DB6
:1047400006F8017D2F46BB420D46F4D9082B0BD14C
:104750002368DF0708D5236961689942DEBF3023EB
:1047600006F8013C06F1FF36921B2261CDF800A04D
:104770004B4603AA21464046FFF7E6FE01304AD1E8
:104780004FF0FF3004B0BDE8F087236843F020030A
:1047900023603348782784F84570236831681F0602
:1047A00051F8045B02D45F0648BFADB23160D9074F
:1047B00044BF43F0200323601DB11023ACE727481A
:1047C000E9E7236823F020032360F6E71646BDE7F8
:1047D000336825686169181D30602E061B6801D595
:1047E000196002E06806FBD5198000232361164694
:1047F000BCE733681A1D32601E68626800213046CB
:10480000FBF70EFD08B1801B606063682361002325
:1048100084F84330AAE72369324649464046D047E8
:104820000130ADD023689B0713D4E068039B984206
:10483000B8BF1846A6E70123324649464046D0474E
:1048400001309DD00135E36803995B1AAB42F2DC7D
:10485000EBE7002504F11906F5E700BF736C0008CB
:10486000846C0008002310B50446C0E90033C0E999
:104870000433836081814366C281836119460822C3
:104880005C3000F006F90D4B63620D4BA3620D4BDB
:10489000E3620D4B23630D4B24629C4206D003F16F
:1048A0006802944202D0D0339C4205D104F15800F2
:1048B000BDE8104000F06AB910BD00BF0D4A000805
:1048C0002F4A0008674A00088B4A0008A00400200D
:1048D000024A0349034800F069B800BF0C000020F9
:1048E000C16400081C00002041680C4B994210B5BF
:1048F000044601D001F0E4FDA168094B994202D0C1
:10490000204601F0DDFDE168064B994204D02046C7
:10491000BDE8104001F0D4BD10BD00BFA0040020D0
:10492000080500207005002010B50B4B0B4C0C4AFD
:104930001A60204600220421FFF794FF04F168006A
:1049400001220921FFF78EFF04F1D0000222BDE809
:1049500010401221FFF786BFD8050020A0040020D8
:10496000D1480008014800F012B900BFE10500205D
:10497000014800F00DB900BFE105002010B5044664
:10498000FFF7F0FF236A1BB1BDE81040FFF7F0BF4F
:10499000044B2362044B1B68002BF5D1FFF7C4FFC7
:1049A000F2E700BFE9480008D80500202DE9F843E8
:1049B0000746884614460026D4E90195B9F1010955
:1049C00005D52468002CF7D13046BDE8F883AB89C3
:1049D000012B07D9B5F90E30013303D029463846EB
:1049E000C04706436835E9E70FB407B5064904AB8D
:1049F000086853F8042B8168019301F0C5FB03B0EC
:104A00005DF804EB04B070471800002010B50C46A8
:104A1000B1F90E1000F06CF80028ABBF636DA389EC
:104A20001B1823F48053ACBF6365A38110BD2DE92F
:104A3000F0411F468B89DB0505460C46164605D519
:104A4000B1F90E100223002200F040F8A389B4F956
:104A50000E1023F48053A38132463B462846BDE81E
:104A6000F04100F057B810B50C46B1F90E1000F047
:104A70002DF8431CA38915BF606523F4805343F4CC
:104A80008053A38118BFA38110BDB1F90E1000F0AF
:104A90000DB802440346934200D1704703F8011B4E
:104AA000F9E70000004870475801002038B5064D6E
:104AB0000023044608462B60FCF79CFE431C02D1F1
:104AC0002B6803B1236038BDDC05002038B5074DE5
:104AD00004460846114600222A601A46FCF794FE56
:104AE000431C02D12B6803B1236038BDDC050020D4
:104AF00038B5074D04460846114600222A601A467A
:104B0000FCF76AFE431C02D12B6803B1236038BD59
:104B1000DC05002038B5074D044608461146002242
:104B20002A601A46FCF7C2FA431C02D12B6803B173
:104B3000236038BDDC050020014B1868704700BFBA
:104B40001800002070B50D4D0D4C641BA4100026FC
:104B5000A64209D10B4D0C4C02F060F8641BA41066
:104B60000026A64205D170BD55F8043B9847013692
:104B7000EEE755F8043B98470136F2E7107000085D
:104B8000107000081070000814700008704770471B
:104B900070472DE9F74F03690C69A34207467EDB96
:104BA000013C01F11408A30000F11405009305EB8A
:104BB0008403019358F8243055F8242001339A4295
:104BC00008EB8409B2FBF3F62ED34FF0000AC4467B
:104BD000AE46D3465CF8043B98B206FB00A0020C3C
:104BE0001B0C06FB0323DEF8002080B292B2121ADF
:104BF0005A44DEF800004FEA134A9BB2C3EB22434B
:104C000003EB104392B242EA0342E1454EF8042B13
:104C10004FEA234BDED2009BEB582BB9019B043BA0
:104C20009D421A462FD33C61384601F07BF900289B
:104C300025DB2946002058F8042BD1F800C01FFAC4
:104C400082FE1FFA8CF3A3EB0E030344120CC2EB9B
:104C5000234202EB1C429BB243EA0243C14541F8A6
:104C6000043B4FEA2240E6D255F8242005EB8403AA
:104C700022B9043B9D421A460BD33C6101363046B3
:104C800003B0BDE8F08F1268043B002ACBD1013C91
:104C9000C6E71268043B002AEFD1013CEAE7002096
:104CA000EEE70000000000002DE9F04FC76999B061
:104CB0008DED020B55EC104B229E099183460E920E
:104CC00013937FB9102000F0FDFD0246CBF81C00C5
:104CD00020B9A74BEF21A74801F0CCFCC0E9017730
:104CE0000760C760DBF81C30196859B15A684A6020
:104CF000012393408B60584600F0DAFEDBF81C304D
:104D000000221A602B1EB9BF23F000430393002337
:104D10003360039F984BBCBF01223260BB4312D16A
:104D2000139A42F20F731360C7F31303234300F087
:104D30004D85239BDFF854A2002B00F04F850AF12C
:104D4000030300F049BD9DED027B002251EC170BDF
:104D500000238DED0C7BFBF7DFFE804658B1139AE4
:104D600001231360239B13B1239A844B1360DFF854
:104D700020A200F033BD9DED0C0B16AA17A95846D2
:104D800001F080F9C7F30A568146002E77D00D9BBB
:104D9000CDF85080C3F31303DDE90C0143F07F53DA
:104DA00043F44013A6F2FF3619460022744BFBF77A
:104DB00093FA69A3D3E90023FBF746FC68A3D3E980
:104DC0000023FBF78BFA044630460D46FBF7D2FB77
:104DD00065A3D3E90023FBF737FC02460B462046C8
:104DE0002946FBF77BFA04460D46FBF7DDFE002261
:104DF0000746002320462946FBF798FE40B1384677
:104E0000FBF7B8FB22462B46FBF786FE00B9013FB5
:104E1000162F51D85B4B03EBC703D3E90023DDE921
:104E20000C01FBF783FE002848D0013F00231293BA
:104E3000169B9B1B5A1E44BFC3F101080023089216
:104E400054BF4FF000080893002F39DB089B0F97E1
:104E50003B44089300230A93099B092B64D8052B34
:104E6000C4BF043B0993099BA3F10203CCBF0024F8
:104E70000124032B63D8DFE803F02A373555DDE939
:104E800016631E4406F23243202BC1BFC3F1400318
:104E90009F4006F2124324FA03F3D6BFC3F1200366
:104EA00047EA030004FA03F0FBF754FB0122A1F1E7
:104EB000F873013E149277E70123B8E71290B7E741
:104EC0007B420A930023A8EB07080F93C4E7002353
:104ED0000B930E9B002B35DC0123009307931A469E
:104EE0000E920BE00123F3E700230B930E9BFB18BC
:104EF00000930133012B0793B8BF0123DBF81C009B
:104F00000021042202F114059D421FD94160584638
:104F100000F08EFD824600283CD11B4B024640F239
:104F2000AF11D8E60123E0E70124002309930B9495
:104F30004FF0FF330093079300221223D0E70123A1
:104F40000B93F5E70E9B00930793D7E701315200CF
:104F5000D8E700BFAFF3008061436F63A787D23FFC
:104F6000B3C8608B288AC63FFB799F501344D33F58
:104F7000A26C0008B96C00080000F07F726C000899
:104F80000000F83FB06D0008116D00089E6C00082D
:104F9000716C0008DBF81C301860079B0E2B00F2C8
:104FA000A480002C00F0A180002F33DDAD4B07F072
:104FB0000F0203EBC20393ED007BF8058DED047B3C
:104FC0004FEA271416D5A84BDDE90C01D3E90823D5
:104FD000FBF764FCCDE9020104F00F040326A24DA7
:104FE00054B9DDE90423DDE90201FBF757FCCDE903
:104FF000020128E00226F2E7E10708D5DDE9040115
:10500000D5E90023FBF720FBCDE90401013664104C
:105010000835E5E700F0D2807C42924B924D04F0D7
:105020000F0203EBC203D3E90023DDE90C01FBF718
:105030000BFBCDE90201241100230226002C40F0D5
:10504000B280002BD3D1129BDDE90245002B00F08A
:10505000B780864B002220462946FBF767FD0028D3
:1050600000F0AE80079B002B00F0AA80009B002B75
:1050700037DD7B1E049320467D4B00222946FBF73B
:10508000E3FACDE90201009C01363046FBF772FAE3
:10509000DDE90223FBF7D8FA764B0022FBF71EF975
:1050A0000546A1F15076002C40F08D80DDE902012B
:1050B000714B0022FBF710F902460B46CDE90223A3
:1050C0002A463346FBF750FD002840F08B82DDE98D
:1050D00002012A4606F10043FBF728FD002840F0B4
:1050E0002881DDE90C34CDE90234179B002BC0F296
:1050F0005A810E2F00F357815A4B03EBC70393EDF0
:10510000007B0E9B002B8DED007B03DA079B002BB1
:1051100040F30181DDE902455646DDE900232046E2
:105120002946FBF7BBFBFBF73FFD8046FBF722FA66
:10513000DDE90023FBF788FA02460B4620462946A4
:1051400008F13004FBF7C8F806F8014B079DA6EB01
:105150000A04A54202460B4640F01781FBF7BEF851
:10516000DDE9002304460D46FBF7FEFC002840F075
:10517000F980DDE9002320462946FBF7CDFC18B174
:1051800018F0010F40F0EE804946584600F090FCC0
:1051900000233370139B01371F60239B002B00F00B
:1051A0001D831E601AE3E20705D5D5E90023FBF74E
:1051B0004BFA01360123641008353FE7022642E727
:1051C000079C049761E7274B0B9903EBC40353E952
:1051D00002235444002953D028490020FBF75EFBEA
:1051E00033462A46FBF778F8CDE910015646DDE94B
:1051F0000201FBF7D9FC0546FBF7BCF902460B465A
:10520000DDE90201FBF768F8303502460B46CDE9CF
:10521000022306F8015BDDE91023FBF787FC002879
:1052200071D1DDE9022311490020FBF755F8DDE9D2
:105230001023FBF77BFC002840F09580A6423FF44A
:1052400050AFDDE910010A4B0022FBF7FDF9084BD6
:10525000CDE910010022DDE90201FBF7F5F9CDE906
:105260000201C4E7B06D0008886D00080000F03F3F
:105270000000244000001C40000014400000E03FFB
:1052800031462846FBF7E0F9CDE910011594564662
:10529000DDE90201FBF788FC0546FBF76BF90246E6
:1052A0000B46DDE90201FBF717F8303506F8015B24
:1052B00002460B46A642CDE902234FF0000224D15C
:1052C000AC4BDDE91001FBF709F802460B46DDE9BE
:1052D0000201FBF749FC002845D1DDE91023A5496F
:1052E0000020FAF7F9FF02460B46DDE90201FBF761
:1052F0001DFC00283FF4F5AE159E731E159316F89D
:10530000013C302BF8D0049F3EE79B4BFBF79CF908
:10531000CDE90201BCE70CD1984B0022DDE9000188
:10532000FBF792F9DDE90223FBF714FC002800F0FB
:105330005781002425460E9BDB43049356460027E5
:105340002146584600F0B4FB002DDCD02FB1AF420F
:1053500003D03946584600F0ABFB2946584600F0CA
:10536000A7FBD0E7049733461E4613F8012D392AD0
:1053700007D19A45F8D1049A0132049230228AF872
:1053800000201A7801321A70BDE77B4B0022FBF730
:105390005BF90022002304460D46FBF7BDFB002805
:1053A0003FF4BBAEF0E60B9A002A00F0DB80099ACE
:1053B000012A00F3BF80149A002A00F0B78003F29C
:1053C00033430A9C4646089A01211A445846984499
:1053D000089200F021FC05465EB1089B002B08DD19
:1053E000B342089AA8BF3346A8EB0308F61AD31AAB
:1053F00008930A9BF3B10B9B002B00F0B7808CB194
:1054000029462246584600F0C7FC4A460146054652
:10541000584600F017FC49460490584600F048FBF7
:10542000049B99460A9B1A1B04D04946584600F033
:10543000B3FC81460121584600F0EEFB0F9B044669
:10544000002B00F0CF811A460146584600F0A4FC1C
:10545000099B012B044600F39580029B002B40F032
:105460008780039BC3F31303002B40F08980039BC9
:1054700023F000431B0D1B052BB1089B0133089340
:1054800008F1010801230A930F9B002B00F0B08163
:10549000236904EB8303186900F072FBC0F120005C
:1054A000089B184410F01F0077D0C0F12003042B94
:1054B0006BDD089BC0F11C00034480440644089344
:1054C000B8F1000F05DD49464246584600F0BEFCE3
:1054D0008146089B002B05DD21461A46584600F000
:1054E000B5FC0446129B002B59D02146484600F0DB
:1054F00019FD002853DA7B1E0493494600230A2233
:10550000584600F0F7FA0B9B8146002B00F07281A1
:10551000002329460A22584600F0ECFA009B002B93
:10552000054667DC099B022B41DC63E0169BC3F157
:10553000360346E7079B5C1E0A9BA342BFBF0A9B3C
:105540000F9A0A94E31AB4BFD2181C1B079BBCBF66
:105550000F920024002BB5BFA8EB0306079B002386
:10556000464630E70A9C0B9D464635E70A9A5CE7BB
:10557000002388E70000E03F0000244000001440C2
:10558000029B80E700230A9382E799D0089A1C3394
:105590001A4498441E44089292E70346F6E7079B94
:1055A0000497002B20DC0093099B022B1EDD009B3F
:1055B000002B7FF4C0AE21460522584600F09AFA2F
:1055C00001460446484600F0ADFC00287FF7B3AE24
:1055D0005646312306F8013B049B01330493AEE6A3
:1055E000079C04972546F3E7079B00930B9B002B32
:1055F00000F00481002E05DD29463246584600F0B1
:1056000025FC05460A9B002B5AD06968584600F0D5
:105610000FFA064628B9844B024640F2EF21FFF705
:105620005ABB2A690232920005F10C010C3001F0DC
:1056300013F801223146584600F008FC0AF1010334
:105640000793009B53440B93029B03F001032F46E7
:105650000A930546079B2146013B48460093FFF706
:1056600098FA3946029000F13008484600F05AFC9A
:105670002A4608902146584600F070FCC26806464B
:1056800002BB0146484600F04DFC024631465846F2
:105690000E9200F00DFA099B0E9A079E43EA020152
:1056A0000A9B194310D1B8F1390F29D0089B002B60
:1056B00002DD029B03F13108009B83F800803FE686
:1056C0002846BBE70122E1E7089B002B04DB099990
:1056D0000B430A990B4320D1002AEDDD49460122F4
:1056E000584600F0B3FB2146814600F01BFC002821
:1056F00003DCE1D118F0010FDED0B8F1390FD8D1B9
:10570000009A3923137033461E46013B16F8012CCC
:10571000392A52D001321A7012E6002A07DDB8F198
:10572000390FEDD0009A08F10103137008E6079BCA
:10573000079A03F8018C0B9B934228D0494600231B
:105740000A22584600F0D6F9AF4281464FF00003D6
:105750004FF00A023946584607D100F0CBF9074608
:105760000546079B0133079374E700F0C3F9294608
:10577000074600230A22584600F0BCF90546F0E728
:10578000009B002BCCBF1E460126564400274946ED
:105790000122584600F05AFB2146814600F0C2FB28
:1057A0000028B0DC02D118F0010FACD133461E4600
:1057B00013F8012D302AFAD0C2E59A45A4D1049BF2
:1057C0000133049331238AF80030B9E5239BDFF8D5
:1057D0005CA01BB10AF10803239A1360504619B06C
:1057E000BDE8F08F099B012B7FF737AE0F9B0A9323
:1057F000012055E6009B002B7FF7D6AE564621468A
:105800004846FFF7C6F900F1300806F8018B009B07
:10581000A6EB0A029342B3DD494600230A2258460A
:1058200000F068F98146EAE7116D0008956C000800
:1058300038B50546002941D051F8043C0C1F002B17
:10584000B8BFE41800F0E8F81D4A136833B9636084
:1058500014602846BDE8384000F0E4B8A34208D9F7
:10586000206821188B4201BF19685B680918216004
:10587000EDE71A465B680BB1A342FAD911685018DC
:10588000A0420BD120680144501883421160E0D13E
:1058900018685B68536008441060DAE702D90C238B
:1058A0002B60D6E7206821188B4204BF19685B681B
:1058B000636004BF091821605460CAE738BD00BFA7
:1058C000E8050020024B0146186800F025B800BF2B
:1058D0001800002070B50F4E0C463168054611B90E
:1058E00000F0AAFE30602146284600F0A5FE431CC9
:1058F00003D14FF0FF34204670BDC41C24F00304D4
:10590000A042F8D0211A284600F096FE0130F2D1CC
:10591000EFE700BFE40500202DE9F843CD1C25F09A
:10592000030508350C2D38BF0C25002D064601DB7C
:10593000A94204D90C2333600020BDE8F883DFF8C6
:10594000D48000F069F8D8F800301C4644BB2946E2
:105950003046FFF7BFFF431C044658D1D8F800403B
:105960002746002F43D1002C4BD0236839463046C0
:1059700004EB030900F060FE814542D121686D1AF5
:1059800029463046FFF7A6FF01303AD023682B4462
:105990002360D8F800305A6862BBC8F800700FE086
:1059A0002268521B20D40B2A17D96119A342256003
:1059B00018BF5960636808BFC8F8001062514B6097
:1059C000304600F02FF804F10B00231D20F00700F3
:1059D000C21A1CBF1B1AA350AFE76268A3420CBFD8
:1059E000C8F800205A60EBE723466468AEE73C46FF
:1059F0007F68B6E71A465B68A342FBD10023536079
:105A0000DEE70C233360304600F00CF894E70560C5
:105A1000D6E700BFE80500200148FFF7B8B800BF8F
:105A2000E00500200148FFF7B3B800BFE005002003
:105A300070B5C66904460D4676B91020FFF742FFDF
:105A40000246E06120B9184B18486B2100F012FEA5
:105A5000C0E901660660C660E669F36883B1E36980
:105A6000DB6853F82500B8B9012101FA05F6721D6B
:105A70009200204600F01CFE60B1C0E901560EE025
:105A800021220421204600F013FEE369F060DB6868
:105A9000002BE4D1002070BD026843F825200023CC
:105AA000C0E90333F7E700BFA26C0008226D0008CD
:105AB00070B5C66905460C4676B91020FFF702FF9F
:105AC0000246E86120B9094B09488F2100F0D2FD58
:105AD000C0E901660660C6603CB1EB696268DB68DC
