:020000040800F2
:1000000000000420C10B00088D0B00088F0B0008B6
:10001000910B0008930B0008950B000800000000EE
:10002000000000000000000000000000970B000826
:10003000990B0008000000009B0B00089D0B0008B6
:10004000110C0008110C0008110C0008110C00081C
:10005000110C0008110C0008110C0008110C00080C
:10006000110C0008110C0008110C0008110C0008FC
:10007000110C0008110C0008110C0008110C0008EC
:10008000110C0008110C0008110C0008110C0008DC
:10009000110C0008110C0008110C0008110C0008CC
:1000A000110C0008110C0008110C0008110C0008BC
:1000B000110C0008110C0008110C0008110C0008AC
:1000C000110C0008110C0008110C0008110C00089C
:1000D000110C0008110C0008110C0008A10B0008FD
:1000E000110C0008110C0008110C0008110C00087C
:1000F000110C0008110C0008110C0008110C00086C
:10010000110C0008110C0008110C0008110C00085B
:10011000110C0008110C0008110C0008110C00084B
:10012000110C0008110C0008110C0008110C00083B
:10013000110C00080000000000000000000000009A
:10014000000000000000000000000000110C00088A
:10015000110C0008110C0008110C0008110C00080B
:10016000110C0008110C0008110C0008110C0008FB
:10017000110C0008110C0008000000000000000035
:10018000110C0008110C0008110C0008110C0008DB
:10019000110C0008110C000800000000110C0008F0
:1001A000000000000000000000000000110C00082A
:1001B000110C0008110C00080000000000000000F5
:1001C000000000000000000000000000000000002F
:1001D000000000000000000000000000110C0008FA
:1001E00010B5054C237833B9044B13B10448AFF371
:1001F00000800123237010BD0C00002000000000CF
:100200006C33000808B5034B1BB103490348AFF337
:10021000008008BD00000000100000206C330008C2
:1002200053B94AB9002908BF00281CBF4FF0FF315D
:100230004FF0FF3000F06AB9ADF1080C6DE904CE63
:1002400000F006F8DDF804E0DDE9022304B07047B1
:100250002DE9F047089D0C46002B4ED194468C4565
:100260008646B2FA82F262D94AB1C2F120039140C5
:1002700020FA03F30CFA02FC194300FA02FE4FEADB
:100280001C471FFA8CF6B1FBF7F44FEA1E4307FB3D
:10029000141143EA014304FB06F199420AD91CEB0D
:1002A000030304F1FF3080F01281994240F20F8184
:1002B000023C6344591A1FFA8EF3B1FBF7F007FBB7
:1002C000101143EA014300FB06F69E420AD91CEBDB
:1002D000030300F1FF3180F0FC809E4240F2F98080
:1002E000634402389B1B40EA044000211DB1D34007
:1002F0000022C5E90032BDE8F0878B4205D90DB177
:10030000C5E9000100210846F5E7B3FA83F10029A9
:1003100046D1A34202D39042C0F0F080861A64EB2B
:1003200003030120002DE6D0C5E90063E3E7002ABE
:1003300040F09080A1EB0C044FEA1C481FFA8CF7A8
:100340000121B4FBF8F64FEA1E4308FB164443EACA
:10035000044307FB06F0984208D91CEB030306F19F
:10036000FF3402D2984200F2CD8026461C1A1FFAB2
:100370008EF3B4FBF8F008FB104443EA044300FB9F
:1003800007F79F4208D91CEB030300F1FF3402D2A8
:100390009F4200F2B0802046DB1B40EA0640A5E702
:1003A000C1F120068B4022FA06F71F4320FA06FC13
:1003B00004FA01F343EA0C03F44000FA01F8380CA4
:1003C0004FEA1349B4FBF0FE1FFA87FC00FB1E4402
:1003D00049EA04440EFB0CF9A14502FA01F20AD9DC
:1003E0003C190EF1FF3A80F08480A14540F28180F3
:1003F000AEF1020E3C44A4EB09041FFA83F9B4FBEE
:10040000F0F300FB134449EA044403FB0CFCA4454D
:1004100007D93C1903F1FF3067D2A44565D9023BE7
:100420003C4443EA0E40A0FB0293A4EB0C049C4224
:10043000CE469C4651D34ED055B1B8EB0E0364EB7B
:100440000C0404FA06F6CB401E43CC40C5E9006418
:10045000002150E7C2F1200320FA03F10CFA02FC5C
:1004600024FA03F394400C434FEA1C4800FA02FEBE
:100470001FFA8CF7B3FBF8F008FB1031230C43EAAA
:10048000014300FB07F1994208D91CEB030300F17B
:10049000FF362CD299422AD9023863445B1AA4B29F
:1004A000B3FBF8F108FB113344EA034401FB07F303
:1004B000A34208D91CEB040401F1FF3613D2A34276
:1004C00011D902396444E41A41EA004139E704468B
:1004D000F0E6084606E7C845AED2B9EB020E63EB7C
:1004E000070C0138A8E73146EDE7034699E73046A7
:1004F000D4E7D6467FE7634402384DE706462346F5
:1005000008460FE7023E634430E700BF704700BF74
:1005100037B50F4C60F07F000E4D00228DF80300C0
:100520001021204600F0A2FD0DF1030164230122F9
:10053000284601F05BFC642301A90222284601F051
:100540004EFE01221021204600F090FD03B030BD88
:10055000000002400C02002010B594B014220021CB
:10056000022409A802F0D6FE1422002103A802F0FA
:10057000D1FE204B012100201A6C42F080521A64F7
:100580001B6C03F080530193019B1B4B1A6842F4D0
:1005900040421A601B68089403F440430E9402938F
:1005A000029B1023CDE90B130823CDE90F03D823B9
:1005B00008A8CDE911340923139300F095FD08B183
:1005C00072B6FEE700F058FD08B172B6FEE70F23E1
:1005D0004FF4A0520590072103A8CDE903344FF44E
:1005E0008053CDE9062300F067FF08B172B6FEE73D
:1005F00014B010BD00380240007000402DE9F043F7
:100600004FF0100991B0002100244A4609A802F0D9
:1006100081FE4FF0010800F0B7FB48F21F7309A8F4
:10062000ADF824804FF4E1370C26CDE90A4340F2BF
:1006300001130C9300F0C6FB042000F0B3FB00F0A4
:100640000DFBFFF789FF1422214609A802F062FE84
:10065000AC4B4946AC481A6B42EA08021A631A6B63
:1006600002EA08020092009A1A6B42F002021A6330
:1006700042461B6B03F002030193019B00F0F6FC62
:1006800009A9A148CDE90998CDE90B8400F016FC31
:100690009E489F4B04614462C0E90037C0E90244B0
:1006A000C0E90564C0E9074402F006FE054608B14A
:1006B00072B6FEE701464A4605A8964C02F02AFEAD
:1006C0001C22294609A80495CDE9025502F022FE14
:1006D0006B23DFF868E22046A560A561C4E900E36A
:1006E0004FF4FA63C4E9033501F0C0FF08B172B6F4
:1006F000FEE74FF4805305A92046059302F0D6F893
:1007000008B172B6FEE7204601F0E0FF08B172B60C
:10071000FEE7029002A90490204602F0CBF90246BF
:1007200008B172B6FEE760230B900D9009A9CDE9E0
:100730000930204602F034F808B172B6FEE7042210
:1007400009A9204602F02CF8054608B172B6FEE76A
:100750002046714C00F054F970484FF482734FF406
:10076000E06C8560C0F8148085624563C0E9004391
:100770000223C0E903C34FF40073C0E90635072321
:10078000C0E90855C0E90B3501F0C2FA034608B1CB
:1007900072B6FEE76248634AC0E90233C0E9043634
:1007A000C0E90633C0E90833C0E9002702F084FD40
:1007B000034608B172B6FEE75B484FF461425B49FD
:1007C000C0E90233C0E90012C0E90436C0E90633CB
:1007D000C0E9083302F070FD08B172B6FEE70021EF
:1007E0004C48494D02F064F94C4C0421494802F050
:1007F0005FF94F4B042205A918681B7905908DF805
:1008000018306423484802F0D2FC4FF47A7000F0AC
:1008100043FA484B1A78202A3ED15A78402A3BD1D5
:1008200018461E4600214FF6FF7216F8017B013173
:10083000D21B1E2992B2F8D1D97F9B7FB2EB012F38
:1008400008BF43F001033BB33B4A00231646C77879
:10085000013310F8021F062B41EA072122F8021B80
:10086000F5D1B6F90430B6F90220A3F2DC533348CF
:10087000A2F2DC5203EBD37302EBD272C3F34F0349
:10088000C2F34F02991803F2DC5301F2DC519B1AB8
:1008900009B21BB241638363F5232846002210216D
:1008A0008DF8083000F0E2FB02A964230122204603
:1008B00001F09CFA642309A90822204601F08FFC6C
:1008C00001221021284600F0D1FB1F20FFF720FE57
:1008D0002120FFF71DFE2320FFF71AFE9F2302A908
:1008E00001228DF808302046642301F07FFA64234A
:1008F000022209A9204601F072FC4FF47A7000F040
:10090000CBF976E70038024000000240B00000203A
:1009100000440040C0010020003001400C020020D3
:10092000380100200010014028000020004800404D
:10093000843300088C020020700200200008004070
:1009400072B6FEE70A4B82B01A6C42F080521A640B
:100950001A6C02F080520092009A5A6C42F4804263
:100960005A645B6C03F480430193019B02B07047AF
:100970000038024010B588B004461422002103A8B4
:1009800002F0C8FC2268124B9A421FD103F584334F
:10099000032110485A6C42F480525A645A6C02F493
:1009A00080520192019A1A6B42F001021A63E0220E
:1009B0001B6B03F001030293029B0223CDE9032387
:1009C0000523CDE9061303A900F078FA08B010BD9D
:1009D0000030014000000240026882B0074B9A429A
:1009E0000AD103F50C331A6C42F004021A641B6C32
:1009F00003F004030193019B02B07047000800401C
:100A000010B586B004461422002101A802F082FC31
:100A100022680C4B9A4213D103F50C3301A90A4802
:100A20001A6B42F002021A63C0221B6B03F002032E
:100A30000093009B0223CDE90123059300F03EFAC9
:100A400006B010BD000800400004024030B5ADB053
:100A5000802504461422002107A802F05BFC2A46E8
:100A600000210CA802F056FC2368424A93422BD185
:100A700040230CA80C9300F0DDFD08B1FFF760FFE8
:100A80003D4B5A6C42F010025A645A6C02F010024C
:100A90000192019A1A6B42F001021A631B6B03F078
:100AA00001030293029B4FF4C063022107930023CA
:100AB0000320CDE90813072307A9CDE90A032F482E
:100AC00000F0FCF92DB030BD2D4A93421BD10CA88B
:100AD0000C9500F0AFFD08B1FFF732FF264B1A6C02
:100AE00042F400321A641A6C02F400320392039A40
:100AF0001A6B42F001021A631B6B03F001030493AB
:100B0000049B0C23D1E71F4A9342DBD14FF480733F
:100B10000CA80C9300F08EFD08B1FFF711FF164BE7
:100B2000002407A918481A6C42F480221A641A6C2F
:100B300002F480220592059A1A6B42F002021A63AF
:100B40004FF440621B6B03F002030693069B0223E3
:100B5000CDE907230323CDE9094307230B9300F0D5
:100B6000ADF922462146272000F0BAF8272000F0F0
:100B7000E9F8A7E7001001400038024000000240F9
:100B8000004400400048004000040240FEE7FEE749
:100B9000FEE7FEE7FEE770477047704700F06AB86F
:100BA000014802F001B800BF28000020034AD2F833
:100BB000883043F47003C2F88830704700ED00E0DD
:100BC000DFF834D0FFF7F2FF0C480D490D4A00233F
:100BD00002E0D458C4500433C4188C42F9D30A4AF2
:100BE0000A4C002301E013600432A242FBD302F05E
:100BF00099FBFFF703FD7047000004200000002070
:100C00000C000020B43300080C000020B0020020CB
:100C1000FEE7000038B50E4B05461A784FF47A739C
:100C2000B3FBF2F30B4A1068B0FBF3F000F098F856
:100C3000044658B90F2D09D8024629464FF0FF3017
:100C400000F04EF8044B20461D6038BD0120FCE743
:100C500004000020000000200800002008B5032048
:100C600000F02CF80F20FFF7D5FFFFF76BFE0020F8
:100C700008BD0000034A044B11681B780B44136045
:100C8000704700BFAC02002004000020014B186830
:100C9000704700BFAC02002038B50446FFF7F6FFEE
:100CA0000546631C1EBF044B1B78E418FFF7EEFFDC
:100CB000431BA342FAD338BD0400002007490302B6
:100CC000CA6803F4E06322F4E0621204120C1343D6
:100CD00043F0BF6343F40033CB60704700ED00E0A6
:100CE000164B30B5DC68C4F30224C4F10703251D9C
:100CF000042B28BF0423062D4FF0FF358CBF033C87
:100D0000002405FA03F3002805FA04F521EA030399
:100D100022EA050203FA04F343EA02034FEA03134B
:100D2000DBB206DB00F1604000F5614080F8003383
:100D300030BD00F00F00024A1354F9E700ED00E067
:100D400014ED00E0002807DB4109012300F01F003B
:100D5000024A834042F82130704700BF00E100E0C2
:100D60000138B0F1807F0BD24FF0E023054AF0212B
:100D70005861002082F82310072298611A61704799
:100D80000120704700ED00E0BFF35F8F044B5A6A0B
:100D900022F480325A620022C3F89420704700BFC8
:100DA00000ED00E0064B40F00100C3F894005A6AE1
:100DB00042F480325A62BFF34F8FBFF36F8F704798
:100DC00000ED00E04378144AC2F89830D2F8A03021
:100DD00023F00103C2F8A0304368C2F89C30C37A04
:100DE000017B1B0643EA017301780B43817A43EAD6
:100DF000C143417B43EA8143817B43EA4143C17B59
:100E000043EA0143417A43EA0123017A43EA410379
:100E1000C2F8A030704700BF00ED00E070B5044696
:100E2000866DFFF733FF054694F83530022B06D068
:100E3000802301206365002384F8343070BD23686B
:100E40001A6822F016021A605A6922F080025A616A
:100E5000226C0AB9A26C1AB11A6822F008021A6050
:100E60001A6822F001021A602368186810F0010065
:100E700007D1E26D3F239340B360012384F83530FE
:100E8000D9E7FFF703FF401B0528EDD920230320F6
:100E9000636584F83500CEE790F83530022B03D037
:100EA00080234365012070470268052380F83530B0
:100EB0000020136823F00103136070472DE9F74FFA
:100EC0000023DFF8A491664A01240D689C4004EADF
:100ED0000506AC4340F0AF804D6803274FEA430E50
:100EE00005F0030407FA0EFC671E6FEA0C0C012FD5
:100EF00034D8876807EA0C08CF6807FA0EF747EA84
:100F000008078760476827EA0608C5F300179F406F
:100F100047EA08074760C768022C07EA0C088F6891
:100F200007FA0EF747EA0807C76019D14FEAD30856
:100F300003F0070A4FF00F0B00EB88084FEA8A0A0C
:100F4000D8F820700BFA0AFB27EA0B0B0F6907FA97
:100F50000AF747EA0B07C8F8207001E0032CDAD142
:100F6000076804FA0EF415F4403F07EA0C0744EA58
:100F7000070404605FD0D9F8444023F0030703F06E
:100F8000030C4FF00F0E44F4804407F180474FEA02
:100F90008C0CC9F8444007F59C37D9F844400EFA48
:100FA0000CFE04F480440194019CBC6824EA0E0EFB
:100FB0002C4CA04246D004F58064A04244D004F5F5
:100FC0008064A04242D004F58064A04240D004F581
:100FD0008064A0423ED004F58064A0423CD004F579
:100FE0008064A0423AD004F58064A04214BF082473
:100FF000072404FA0CF415F4801F44EA0E04BC60C4
:101000006FEA060794680CBF3C40344315F4001F98
:101010009460D4680CBF3C40344315F4003FD46066
:1010200054680CBF3C403443ED035460146854BF13
:101030003C40344314600133102B7FF445AF03B0C0
:10104000BDE8F08F0024D4E70124D2E70224D0E7E2
:101050000324CEE70424CCE70524CAE70624C8E726
:10106000003C014000000240003802400AB18161AA
:1010700070470904FBE70000194B37B51A6C194C8F
:1010800042F080521A641B6C03F080530193019B61
:10109000236843F480332360FFF7F8FD0546636857
:1010A000DA030CD523680F4D43F400332360FFF7B8
:1010B000EDFD04466B689B030AD5002006E0FFF7B0
:1010C000E5FD401BB0F57A7FE9D9032003B030BDC0
:1010D000FFF7DCFD001BB0F57A7FEBD9F5E700BF29
:1010E00000380240007000402DE9F341044640B34F
:1010F0000368DE0710D423689D0761D423681907AD
:1011000000F1A68023685A0700F1C780A269002A6F
:1011100040F0308100202CE0944B9A6802F00C02E1
:10112000042A07D09A6802F00C02082A0BD15B68E7
:10113000590208D58D4B1B689A03DCD56368002BD8
:10114000D9D1012015E06368884DB3F5803F13D1F4
:101150002B6843F480332B60FFF798FD834E0546E0
:1011600033689B03C7D4FFF791FD401B6428F7D970
:10117000032002B0BDE8F0819BB92B6823F48033D3
:101180002B602B6823F480232B60FFF77FFD06463E
:101190002B689F03AFD5FFF779FD801B6428F7D933
:1011A000E6E7B3F5A02F2B6803D143F480232B602F
:1011B000CEE723F480332B602B6823F48023CAE727
:1011C0006A4B9A6812F00C0F07D09A6802F00C0272
:1011D000082A11D15B685D020ED4644A136899072E
:1011E00002D5E368012BACD11368216923F0F80321
:1011F00043EAC103136081E7E3685C4DBBB12B6830
:1012000043F001032B60FFF741FD06462B689B0767
:1012100007D52B68226923F0F80343EAC2032B6049
:101220006CE7FFF733FD801B0228EFD9A0E72B689E
:1012300023F001032B60FFF729FD06462B689F076B
:101240007FF55CAFFFF722FD801B0228F6D98FE700
:101250006369464D83B16B6F43F001036B67FFF722
:1012600015FD06466B6F9B073FF54CAFFFF70EFD74
:10127000801B0228F6D97BE76B6F23F001036B67B5
:10128000FFF704FD06466B6F9F077FF53BAFFFF747
:10129000FDFC801B0228F6D96AE7344B1A6CD50096
:1012A00027D41A6C012742F080521A641B6C03F099
:1012B00080530193019B2E4D2B68D8051BD5A36845
:1012C0002A4D012B27D12B6F43F001032B6741F2ED
:1012D0008838FFF7DBFC254E0546336F9A073FD56C
:1012E000002F3FF413AF214A136C23F08053136493
:1012F0000CE70027DFE72B6843F480732B60FFF7D0
:10130000C5FC06462B68D905D9D4FFF7BFFC801B66
:101310006428F7D92CE7ABB92B6F41F2883823F05A
:1013200001032B672B6F23F004032B67FFF7AEFC41
:1013300006462B6F9B07D3D5FFF7A8FC801B4045C3
:10134000F7D915E7052B2B6F03D143F004032B6767
:10135000B9E723F001032B672B6F23F00403B5E7F4
:10136000FFF794FC401B4045B7D901E70038024025
:1013700000700040384DAB6803F00C03082B41D0DF
:101380002B68022A23F080732B602ED1FFF77EFC9E
:1013900006462B68990122D4A36A5B085A1ED4E939
:1013A00007310B4343EA0243626A43EA8213E26A6B
:1013B00043EA026343F000536B602B6843F0807391
:1013C0002B60FFF763FC244D04462B689A013FF520
:1013D000A1AEFFF75BFC001B0228F6D9C8E6FFF7B9
:1013E00055FC801B0228D4D9C2E6FFF74FFC044607
:1013F0002B689B017FF58EAEFFF748FC001B02288F
:10140000F6D9B5E6012A6B683FF49BAE03F480027F
:10141000E1698A427FF495AE03F03F02216A8A4275
:101420007FF48FAE47F6C072616A1A40B2EB811F3B
:101430007FF487AEA26A03F440315208013AB1EB5F
:10144000024F7FF47EAEE26A03F07063B3EB026F8B
:1014500014BF012000208CE600380240134908B573
:101460008B6803F00C03042B1BD0082B1BD14A689C
:101470004B68496802F03F0213F48003C1F38811FE
:101480001ABF0B4800230B48A1FB0001FEF7C8FE62
:10149000064B5B68C3F3014301335B00B0FBF3F021
:1014A00008BD0348FCE70348FAE700BF00380240E4
:1014B000C0FC9B010024F4002DE9F0410D460446D8
:1014C00010B90120BDE8F081454A136803F00F030D
:1014D0008B4228D321688F0730D4C80743D4404AB1
:1014E000136803F00F03AB4266D8226851076FD42C
:1014F000130707D53B4A2169936823F4604343EA05
:10150000C1039360FFF7AAFF364B374A9B68C3F3CA
:101510000313D35CD840354B1860354B1868FFF780
:1015200079FB0020CEE7136823F00F030B43136011
:10153000136803F00F038B42C3D1CBE711F0040F04
:10154000284B03D09A6842F4E0529A600E0703D504
:101550009A6842F460429A609A68A06822F0F002A9
:1015600002439A60B9E761681E4B01291A681BD1D2
:1015700012F4003FA5D09A6841F28838194F22F042
:1015800003020A439A60FFF781FB0646BB68626864
:1015900003F00C03B3EB820FA1D0FFF777FB801BA6
:1015A0004045F3D903208DE7022902D112F0007FD4
:1015B000E0E712F0020FDDE7136823F00F032B437F
:1015C0001360136803F00F03AB427FF47AAF8CE72C
:1015D0000449E0688B6823F4E05303438B6087E79A
:1015E000003C024000380240913300080000002017
:1015F00008000020044B054A9B68C3F38223D35C98
:10160000034A1068D8407047003802408933000808
:1016100000000020044B054A9B68C3F34233D35CAF
:10162000034A1068D84070470038024089330008E8
:101630000000002003682DE9F74313F0010604467B
:101640000BD0AC4A916821F400019160C66A9168A0
:101650003143B6FA86F67609916013F4002512D06C
:10166000A449656BD1F88C20B5F5801F22F4401297
:1016700008BF012642EA050216BFB5FA85F5002526
:101680006D09C1F88C20D90210D59A48A16BD0F809
:101690008C20B1F5800F22F4400242EA0102C0F82A
:1016A0008C2000F04C81002908BF01259A0632D514
:1016B000904B914F1A6C42F080521A641B6C03F0ED
:1016C00080530193019B3B6843F480733B60FFF7B9
:1016D000DDFA80463B68DB0540F13381854FA26A25
:1016E0003B6F13F4407340F03781A36A03F44072F8
:1016F000B2F5407F7F4A40F05481916823F07040FA
:1017000021F4F81120F4407001439160C3F30B03FE
:10171000116F0B4313672368DA060CD5754AD2F8AC
:101720008C1021F08071C2F88C10D2F88C10206BD4
:101730000143C2F88C105F0408D56E49E06DD1F802
:10174000902022F440320243C1F89020180408D5BA
:101750006849206ED1F8902022F440220243C1F85B
:101760009020D90308D56349606ED1F8902022F407
:1017700040120243C1F890205A0608D55D49E06B3B
:10178000D1F8902022F003020243C1F890201F06F6
:1017900008D55849206CD1F8902022F00C02024361
:1017A000C1F89020D80508D55249606CD1F8902036
:1017B00022F030020243C1F89020990508D54D4926
:1017C000A06CD1F8902022F0C0020243C1F8902012
:1017D0005A0508D54749E06CD1F8902022F44072B0
:1017E0000243C1F890201F0508D54249206DD1F869
:1017F000902022F440620243C1F89020D80408D51A
:101800003C49606DD1F8902022F440520243C1F867
:101810009020990408D53749A06DD1F8902022F482
:1018200040420243C1F890209A020CD53148616FC2
:10183000D0F89020B1F1006F22F0006208BF0125BE
:101840000A43C0F890205F0308D52A49E06ED1F81A
:10185000902022F040720243C1F89020180208D56F
:101860002449A06FD1F8902022F080520243C1F8A1
:101870009020590108D51F49E06FD1F8902022F03F
:1018800000520243C1F89020002E40F08E809A0151
:1018900000F18B80012D50D1164D2B6823F0805321
:1018A0002B60FFF7F3F906462B689F0000F1E080FC
:1018B00021680D0301D5636B1BB1C8021ED5A36B54
:1018C000E3B90C4AD4E90453D2F888001B0600F4AB
:1018D000403043EA85130343C2F88830D2F88C3095
:1018E000206A23F4F853013843EA0023C2F88C300D
:1018F00004E000BF00380240007000408A0210D5AA
:10190000636FB3F1006F0CD16049A369D1F88820EF
:1019100020691B0402F0706243EA80131343C1F88C
:1019200088305A4C236843F080532360FFF7AEF9A8
:10193000054623689B0040F1A280002009E00126B3
:10194000B4E6FFF7A3F9A0EB080064287FF6C2AE67
:10195000032003B0BDE8F08302F4407293423FF4E9
:10196000C4AE3B6F3A6F23F4407342F480323A675F
:101970003A6F22F480323A673B673B6FD8077FF5B6
:10198000B4AEFFF783F941F2883980463B6F99077F
:101990003FF5ABAEFFF77AF9A0EB08004845F5D963
:1019A000D6E7916821F4F811AFE6384E336823F09A
:1019B00080633360FFF76AF9074633681B0151D42F
:1019C0002268D7070DD5E36A5BB9D6F88410D4E94D
:1019D000010301F070611B0743EA80130B43C6F853
:1019E0008430100303D5636BB3F5801F05D0D1029B
:1019F00019D5A36BB3F5800F15D12449E368D1F84D
:101A0000840066681B0600F0E04043EA8613034347
:101A1000C1F88430D1F88C00E36920F01F00013B4D
:101A20000343C1F88C3092010AD5E36862681B0653
:101A300043EA8213A26843EA0273144AC2F884306C
:101A4000124E336843F080633360FFF71FF9074697
:101A500033681B013FF51EAFFFF718F9C01B642860
:101A6000F6D975E7FFF712F9C01B6428A5D96FE70F
:101A7000FFF70CF9801B64287FF616AF68E7FFF7C5
:101A800005F9401B64287FF654AF61E70038024037
:101A9000F7B50E4614460546FFF7F8F83444241A05
:101AA000FFF7F4F8214B07461B68C3F3CB336343BE
:101AB00001932A68906810F080002DD0731CF9D033
:101AC000FFF7E4F8C01BA04228D32B685A6822F025
:101AD000E0025A606A68B2F5827F0AD1AA68B2F55C
:101AE000004F02D0B2F5806F03D11A6822F0400295
:101AF0001A60AA6AB2F5005F07D11A6822F4005290
:101B00001A601A6842F400521A600123032085F813
:101B10005D30002385F85C3003B0F0BD019B13B14C
:101B2000019B013BC4E71C46C3E700BF0000002047
:101B30002DE9F74317461D46002304463D440E4653
:101B40008DF80330FFF7A2F82D1AFFF79FF8284B06
:101B500023228046D4F800901B6853431B0D6B432F
:101B6000019322689068304038D0B6F5C06F06D136
:101B700099F80C30DBB28DF803309DF803307B1CF4
:101B8000F0D0FFF783F8A0EB0800A84229D3236820
:101B90005A6822F0E0025A606268B2F5827F0AD188
:101BA000A268B2F5004F02D0B2F5806F03D11A6877
:101BB00022F040021A60A26AB2F5005F07D11A68EB
:101BC00022F400521A601A6842F400521A6001238B
:101BD000032084F85D30002384F85C3003B0BDE856
:101BE000F083019B13B1019B013BB9E71D46B8E7A8
:101BF000000000204368B3F5827F73B504460D46AC
:101C0000164612D0204B214A1B68B3FBF2F34FF467
:101C10007A7253430193019BEBB1019B013B01930A
:101C200023689B681B06F6D415E08368B3F5004F64
:101C300002D0B3F5806F04D12268136823F040030B
:101C40001360324629462046FFF722FFB0B9636889
:101C5000B3F5827F02D0002002B070BDA368B3F557
:101C6000004F02D0B3F5806FF5D133462A464FF4CA
:101C7000C0612046FFF75CFF0028ECD0236E0320F4
:101C800043F020032366E7E70000002000366E01E2
:101C900073B513460D4616460A464FF4C051044626
:101CA000FFF746FF30B1236E032043F02003236685
:101CB00002B070BD144B154A1B68B3FBF2F34FF42E
:101CC0007A72534301936368B3F5827F10D1324631
:101CD00029462046FFF7DCFE0028E4D133462A4699
:101CE0004FF4C0612046FFF723FF0028E0D0DAE779
:101CF000019B002BF2D0019B013B019323689B6861
:101D00001B06F5D4EAE700BF0000002000366E0194
:101D100070B50446002867D0436A002B5DD1426845
:101D2000B2F5827F00D0C3610023A36294F85D30D6
:101D300003F0FF0223B9204684F85C20FEF71AFE68
:101D400002232268E06884F85D301368B0F5E06F24
:101D500023F0400313604FF0000342D91D46B0F555
:101D6000706F18BFA36200F470606368A66803F424
:101D70008273A16906F404463343266906F002061D
:101D80003343666906F00106334301F40076090C1B
:101D90003343E66901F0040106F038063343266A4E
:101DA00006F080063343A66A06F400563343666B9A
:101DB000136006F00806636A03F01003334303431D
:101DC00000200B432B435360D36923F40063D3619A
:101DD0000123206684F85D3070BD0023C0E9043320
:101DE000A2E74FF48055BCE70120F5E72DE9F74362
:101DF00004461F460D469046FEF748FF94F85D30B6
:101E00008146012BD8B240F0B580002D76D0B8F1D4
:101E1000000F73D094F85C30012B00F0AB800323EB
:101E2000266884F85C0084F85D300023A56323668F
:101E30002364A4F83E80A4F84430A4F84630A4F803
:101E40003C80C4E91333A368B3F5004F07D133686E
:101E500023F040033360336843F4804333603368D6
:101E60005B0603D4336843F040033360E268636881
:101E7000B2F5E06F45D913B1B8F1010F07D135F8CC
:101E8000023BF360A563E38F013B9BB2E387E38FE3
:101E90009BB2D3B94A4639462046FFF7F9FE0028DF
:101EA00065D1A36833B901932368DA6801929B680E
:101EB0000193019B012384F85D300023206E84F898
:101EC0005C30C01A18BF012018E0226893689D0793
:101ED00005D5A36B33F8021BD160A363D3E7FEF7EC
:101EE000D5FEA0EB0900B842D1D3781CCFD0012396
:101EF000032084F85D30002384F85C3003B0BDE833
:101F0000F08313B1B8F1010F13D1E38F9BB2012B12
:101F100006D935F8023BF360A563E38F023B06E088
:101F20002B783373A36B0133A363E38F013B9BB225
:101F3000E387E38F9BB2002BACD0226893689907AC
:101F40000CD5E18FA36B89B2012904D933F8021BA8
:101F5000D160A363E1E71B781373E3E7FEF796FE16
:101F6000A0EB0900B842E4D37B1CE2D0BFE72023FA
:101F7000236696E70220C1E72DE9F84304460D46A3
:101F800091461E46089FFEF781FE94F85D2080462C
:101F90006368012AD1B20AD0B3F5827F40F01D8177
:101FA000A268002A40F01981042940F01681002D12
:101FB00055D0B9F1000F52D0002E50D094F85C20CB
:101FC000012A00F00A81012284F85C2094F85D2047
:101FD000042A02D0052284F85D20E06800222168EE
:101FE000B0F5E06F2266C4F84090A4F84660A4F80B
:101FF0004460E687A563A687C4E913224A6801D82E
:10200000012E2ED022F480524A600A68520603D470
:102010000A6842F040020A60B0F5E06F5BD90BB18C
:10202000012E07D135F8023BCB60E38FA563013B5E
:102030009BB2E3870125E38F9BB2ABB9B4F846307E
:102040009BB28BB9424639462046FFF721FE002855
:1020500000F0B98020232366002384F85C3001203F
:1020600037E042F48052CFE721688B689E070DD598
:10207000E38F9BB253B145B1A36B33F8022BCA6017
:10208000A363E38F013B9BB2E38700258A6812F0CC
:1020900001020FD0B4F846309BB25BB1C968154657
:1020A000236C23F8021B2364B4F84630013B9BB237
:1020B000A4F84630FEF7EAFDA0EB0800B842BAD318
:1020C000781CB8D00123032084F85D30002384F805
:1020D0005C30BDE8F8830BB1012E0BD1E38F9BB2CE
:1020E000012B09D935F8023BCB60E38FA563023B96
:1020F0009BB2E387012548E02B780B73A36B013378
:10210000A363E38F013BF3E722689368990711D536
:10211000E38F9BB273B165B1E18FA36B89B20129E3
:102120003DD933F8021BD160A363E38F023B9BB21E
:10213000E38700252268916811F001011DD0B4F8F1
:1021400046309BB2CBB1B4F84600236C80B2012874
:102150002DD9D06823F8020B2364B4F84630023B33
:102160009BB2A4F84630B4F846309BB2012B03D89A
:10217000536843F4805353600D46FEF787FDA0EB90
:102180000800B84201D37B1C9CD1E38F9BB2002B8B
:10219000BAD1B4F846309BB2002BB5D152E71B78C8
:1021A0001373A36B0133A363E38F013BBFE7127B80
:1021B0001A70236C01332364B4F84630013B9BB2A0
:1021C000A4F84630D8E7012384F85C0084F85D3039
:1021D000206E003818BF01207BE7022079E72DE947
:1021E000F7431E4690F85D3004468946012B17469A
:1021F000DDB204D00225284603B0BDE8F0830029F3
:10220000F9D0002AF7D04368B3F5827F0BD18368F9
:102210004BB9042380F85D30134600960A46FFF759
:10222000ABFE0546E7E7FEF731FD94F85C308046EB
:10223000012BDFD001230025E26884F85C30042301
:10224000A563B2F5E06F84F85D30A5872566A4F834
:102250004670E587C4F84090A4F84470C4E913556B
:1022600025686B688CBF23F4805343F480536B6004
:10227000A368B3F5004F07D12B6823F040032B6010
:102280002B6823F480432B602B685F0603D42B68F4
:1022900043F040032B60B2F5E06F23D9B4F8463029
:1022A0009BB223B323689A68D20741D5DA68236CBE
:1022B00023F8022B2364B4F84630013B9BB2A4F808
:1022C0004630EBE723689A68D00721D51B7B226C48
:1022D0001370236C01332364B4F84630013B9BB286
:1022E000A4F84630B4F846309BB2002BEAD14246FF
:1022F00031462046FFF77EFC18BB012384F85D3091
:102300000023256E84F85C30ED1A18BF012572E7B2
:10231000FEF7BCFCA0EB0800B042E3D3711CE1D097
:102320000123032584F85D30002384F85C3062E7E4
:10233000FEF7ACFCA0EB0800B042AFD3731CADD0ED
:10234000EEE720232366D8E7036A026A23F002033C
:1023500022F0010270B50262456882690C6822F4BD
:10236000803222F0730222438C682343104CA04237
:1023700003D004F58064A04214D1046A23F008035A
:1023800024F004040462CC682343094CA04203D027
:1023900004F58064A04205D125F44075D1E90546D5
:1023A00034432543456082614A684263036270BDDD
:1023B00000000140036A026A23F4007322F4807271
:1023C00070B502624568C2690C6822F4803222F05E
:1023D000730222438C6843EA0423124CA04203D0C8
:1023E00004F58064A04216D1046A23F4006324F447
:1023F00080640462CC6843EA04230A4CA04203D000
:1024000004F58064A04206D125F44055D1E9054683
:10241000344345EA04154560C2614A68C2630362F9
:1024200070BD00BF00000140026A036A22F400523E
:1024300023F4805330B503624468C3690D6823F008
:10244000807323F4E64343EA05238D6842EA0532AC
:10245000084DA84203D005F58065A84204D124F4B4
:1024600080444D6944EA85144460C3614B68036449
:10247000026230BD00000140026A036A22F40032A9
:1024800023F4803330B503624468436D0D6823F450
:10249000803323F070032B438D6842EA0542094DD7
:1024A000A84203D005F58065A84204D124F4803405
:1024B0004D6944EA0524446043654B6883650262C4
:1024C00030BD00BF00000140026A036A22F400121E
:1024D00023F4801330B503624468436D0D6823F024
:1024E000807323F4E04343EA05238D6842EA0552F2
:1024F000084DA84203D005F58065A84204D124F414
:1025000080244D6944EA8524446043654B68C36573
:10251000026230BD00000140036A10B5046A24F075
:10252000010404620A4CA04203D004F58064A04276
:1025300003D1046A24F004040462846923F00A03CA
:1025400024F0F004194344EA02128261016210BDD2
:1025500000000140036A10B5046A24F0100404620C
:102560000B4CA04203D004F58064A04203D1046A5E
:1025700024F040040462846923F0A00324F470442E
:1025800043EA011144EA02328261016210BD00BFD8
:102590000000014070470000324A0368904212D0A8
:1025A000B0F1804F0FD0A2F57C4290420BD002F5E3
:1025B0008062904207D002F58062904203D002F51B
:1025C0007842904219D14A6823F070031343254A98
:1025D000904229D0B0F1804F26D0A2F57C429042A3
:1025E00022D002F5806290421ED002F580629042B5
:1025F0001AD002F57842904216D01B4A904213D06E
:1026000002F5806290420FD002F5806290420BD0BA
:10261000A2F59832904207D002F58062904203D032
:1026200002F58062904203D123F44073CA681343D9
:102630004A6923F0800313438A68C2620A6882628F
:10264000084A904203D002F58062904201D10A69A3
:102650000263026842F004020260012242610360E8
:10266000704700BF000001400040014010B5044623
:1026700050B390F83D3003F0FF021BB980F83C20C6
:10268000FEF7AAF902232068211D84F83D30FFF7E8
:1026900083FF0123002084F8483084F83E3084F81A
:1026A0003F3084F8403084F8413084F8423084F878
:1026B000433084F8443084F8453084F8463084F858
:1026C000473084F83D3010BD0120FCE710B50446CA
:1026D00050B390F83D3003F0FF021BB980F83C2066
:1026E000FFF758FF02232068211D84F83D30FFF7D3
:1026F00053FF0123002084F8483084F83E3084F8EA
:102700003F3084F8403084F8413084F8423084F817
:10271000433084F8443084F8453084F8463084F8F7
:10272000473084F83D3010BD0120FCE7036A026A9F
:1027300023F0200322F0100270B50262456882691E
:102740000C6822F0807222F4E64242EA04228C688D
:1027500043EA0413114CA04203D004F58064A04264
:1027600016D1046A23F0800324F040040462CC688C
:1027700043EA0413094CA04203D004F58064A0424C
:1027800006D125F44065D1E90546344345EA840580
:10279000456082614A688263036270BD0000014047
:1027A00038B590F83C300446012B73D001200C2A38
:1027B00084F83C004ED008D8042A2BD0082A39D0FF
:1027C000BAB1002384F83C3038BD102A52D0142A04
:1027D000F7D12068FFF778FE0A69436D43F4006380
:1027E0004365436D23F480634365436D43EA0223ED
:1027F0004EE02068FFF7A8FD0A69836943F00803EB
:102800008361836923F004038361836913438361D4
:102810000020D6E72068FFF789FF0A69836943F43F
:1028200000638361836923F480638361836943EA7E
:102830000223ECE72068FFF7BDFD0A69C36943F096
:102840000803C361C36923F00403C361C36913436D
:10285000C361DDE72068FFF7E7FD0A69C36943F458
:102860000063C361C36923F48063C361C36943EA3E
:102870000223EDE72068FFF7FFFD0A69436D43F08F
:1028800008034365436D23F004034365436D13431D
:102890004365BDE7022097E70A4310B5846842EA22
:1028A000032224F47F442243826010BD38B590F89F
:1028B0003C3004460220012B63D084F83D00012205
:1028C000206884F83C20304B85682B4083600B687F
:1028D000602B42D025D8402B49D016D8202B0DD0C4
:1028E0000AD833F0100109D0012384F83D300023C9
:1028F00084F83C30104638BD302BF5D1826822F088
:102900007002134343F007031BE0502BECD1CA685D
:102910004968FFF701FE836823F0700343F0570313
:102920000FE0B3F5805F0DD0B3F5005F0CD0702BD6
:10293000DAD1CB68D1E90121FFF7AEFF836843F01C
:10294000770383600022CFE7CB68D1E90121FFF74D
:10295000A3FF836843F48043F3E7CA684968FFF73D
:10296000F9FD836823F0700343F06703E9E7CA6861
:102970004968FFF7D1FD836823F0700343F04703F4
:10298000DFE70246B6E700BF8800FEFF01F01F0147
:10299000036A10B501248A408C4023EA04030362D1
:1029A000036A1A43026210BD082908B518D005D879
:1029B00059B1042911D090F8433008E00C2912D005
:1029C0001029F8D190F8423001E090F83E30013BF8
:1029D00018BF012353B1012030E090F83F30F6E7F3
:1029E00090F84030F3E790F84130F0E708294FF0D5
:1029F000020327D006D861B1042920D0022380F831
:102A0000433008E00C2920D01029F7D180F842305B
:102A100001E080F83E3000680122FFF7B7FF204A4E
:102A2000904215D01F4B984212D0B0F1804F16D172
:102A300082681D4B1340062B2DD1002008BD80F865
:102A40003F30E8E780F84030E5E780F84130E2E7E2
:102A5000436C904243F400434364E9D0E5E7134BF1
:102A60009842E5D003F580639842E1D003F5806396
:102A70009842DDD003F578439842D9D003F57053DE
:102A80009842D5D0A3F594339842D1D0036843F04F
:102A900001030360D1E7B3F5803FF7D1CDE700BF75
:102AA0000000014000040140070001000004004054
:102AB000FFF77ABF70B590F83C3004460220012B36
:102AC0003BD023681D4D84F83D00AB425A6898689E
:102AD00002D01B4EB34203D122F470024E6832433F
:102AE0000E6822F07002AB4242EA06025A6019D028
:102AF000B3F1804F16D0134A934213D002F580628F
:102B000093420FD002F5806293420BD002F57842D7
:102B1000934207D002F57052934203D0A2F594324B
:102B2000934204D1896820F080020A439A6001230D
:102B3000002084F83D3084F83C0070BD0000014066
:102B40000004014000040040026852E8003F23F402
:102B5000907342E8003102680029F5D102F10803C0
:102B600053E8003F23F0010302F1080C4CE8003168
:102B70000029F3D1036E012B07D152E8003F23F067
:102B8000100342E800310029F7D12023C0F880303B
:102B9000002303668366704770477047806B08B5F3
:102BA000FFF7FBFF08BD7047036870B5DA6940F6B0
:102BB0000F061968044632429D680BD1960640F113
:102BC00088808D0640F18580836E002B7BD0BDE828
:102BD0007040184705F00100964D0D40054378D030
:102BE000D60709D5CD0507D501251D62D4F8845037
:102BF00045F00105C4F88450960708D538B1022580
:102C00001D62D4F8845045F00405C4F8845055077B
:102C100008D538B104251D62D4F8845045F002056A
:102C2000C4F8845016070BD501F02005054307D0E2
:102C300008201862D4F8840040F00800C4F884002A
:102C400015050AD5480108D54FF400601862D4F87C
:102C5000843043F02003C4F88430D4F88430002B4F
:102C600031D0920605D58B0603D5A36E0BB1204655
:102C7000984726682046D4F88420B36802F02802DA
:102C800003F0400353EA02051ED0FFF75DFFB3686F
:102C90005E0615D5226802F1080353E8003F23F0D1
:102CA0004003083242E800310029F3D1606F38B1A7
:102CB000614B0365FEF7F0F828B1606F036D86E79E
:102CC0002046FFF76AFF70BDFFF767FFC4F8845026
:102CD000F9E7206E012840F08D80D50640F18A800A
:102CE000C80640F1878010221A629968B4F858200B
:102CF000490651D5606F0168496889B2002942D000
:102D0000914240D2C269A4F85A10B2F5807F2ED009
:102D100053E8002F22F4807243E800210029F7D104
:102D200003F1080252E8002F22F0010203F108002B
:102D300040E800210029F3D103F1080252E8002FF6
:102D400022F0400203F1080040E800210029F3D1FD
:102D50002022C4F88020216653E8002F22F01002C0
:102D600043E800210029F7D1606FFEF757F80223EE
:102D7000B4F858106366B4F85A30C91A89B22046BC
:102D8000FFF711FF9FE791429DD1C369B3F5807FA3
:102D900099D102236366F2E7B4F85A10B4F85A00E6
:102DA00089B280B200288ED0511A89B200298AD007
:102DB00053E8002F22F4907243E800200028F7D156
:102DC00003F1080252E8002F22F0010203F1080586
:102DD00045E800200028F3D12022A066C4F8802016
:102DE000206653E8002F22F0100243E8002000285C
:102DF000F7D1CEE7160607D50D0605D5E36E002BF5
:102E00003FF461AF2046E2E650067FF55CAF4A062C
:102E10007FF559AF53E8002F22F0400243E800212C
:102E20000029F7D120232046E166E367FFF7B4FECF
:102E300049E700BF200100049D2B000838B5044677
:102E4000C0692169A26823680A4361691D680A4351
:102E50007D4902432940256A0A43E1681A605A689D
:102E600022F440520A435A60A26999682A4321F425
:102E700030610A439A60754A934213D1744BD3F878
:102E8000903003F00303022B00F0A880032B21D025
:102E9000012B40F0BD80B0F5004F40F09C80FEF764
:102EA000DDFA92E06B4A93421BD1694BD3F8903024
:102EB00003F00C03082B00F0918009D8002B00F0E0
:102EC000AD80042BE7D001200023C4E91A3338BDBC
:102ED0000C2BF8D1B0F5004F00F084804FF4004087
:102EE000A3E05D4A93420ED1594BD3F8903003F0E2
:102EF0003003202B72D004D8002B00F08F80102BD1
:102F0000E0E7302BE5E7554A93420DD1504BD3F81B
:102F1000903003F0C003802B60D003D8002B7DD00D
:102F2000402BCFE7C02BD4E74D4A934210D1484BFA
:102F3000D3F8903003F44073B3F5007F4ED004D83B
:102F4000002B6BD0B3F5807FBCE7B3F5407FC0E7C3
:102F5000444A934210D13E4BD3F8903003F440637F
:102F6000B3F5006F3AD004D8002B51D0B3F5806F81
:102F7000A8E7B3F5406FACE73B4A934210D1344B1E
:102F8000D3F8903003F44053B3F5005F26D004D853
:102F9000002B43D0B3F5805F94E7B3F5405F98E72B
:102FA000324A93428FD12A4BD3F8903003F44043F6
:102FB000B3F5004F12D003D883B3B3F5804F81E748
:102FC000B3F5404F85E7FEF715FB58B900207BE7C6
:102FD000FEF720FB27E0FEF741FA24E0B0F5004FB2
:102FE000234822D16268530803EB4003B3FBF2F39A
:102FF0004FF6EF72A3F1100191423FF664AF23F058
:103000000F02C3F34203216892B21343CB60DDE7A2
:10301000B0F5004FDCD1FEF7FDFAD6E7B0F5004F72
:10302000D1D0FEF7E7FA0028D0D0626800EB520357
:10303000B3FBF2F34FF6EF72A3F1100191423FF6AA
:1030400042AF2268D360C1E7F369FFEF001001408F
:10305000003802400044004000480040004C00405E
:10306000005000400014014000780040007C004007
:103070000024F400436A1A0710B506D50168446BB2
:103080004A6822F4004222434A60DC0706D5016800
:10309000846A4A6822F4003222434A60990706D5BE
:1030A0000168C46A4A6822F4803222434A605A079F
:1030B00006D50168046B4A6822F4802222434A60E4
:1030C000DC0606D50168846B8A6822F480522243AC
:1030D0008A60990606D50168C46B8A6822F400529A
:1030E00022438A605A0610D50168046C4A68B4F518
:1030F000801F22F4801242EA04024A6005D14A6825
:10310000446C22F4C00222434A601B0606D50268C2
:10311000816C536823F400230B43536010BD2DE9E9
:10312000F843DDF8209004460D461746984622687D
:10313000D36935EA03030CBF01230023BB4201D04E
:10314000002022E0B9F1FF3FF2D0FDF79FFDA0EB98
:103150000800484529D8B9F1000F26D021680B682E
:103160005A07E4D5802DE2D0402DE0D0CE6916F08C
:1031700008060CD0082520460D62FFF7E5FC002369
:103180000120C4F8845084F87830BDE8F883CB6916
:103190001B05CCD54FF4006320460B62FFF7D4FC2F
:1031A000202384F87860C4F884300320EDE72DE90B
:1031B000F7439846C36F04460E46202B17464AD164
:1031C00019B9012003B0BDE8F083002AF9D021230A
:1031D0000025C0F88450C367FDF758FDA3688146F9
:1031E000A4F85070B3F5805FA4F8527003D123693E
:1031F0000BB935461E46B4F852204B46CDF8008038
:1032000092B242B940212046FFF789FF2023E367AD
:103210000028D7D007E0002280212046FFF77FFF5B
:1032200018B12023E3670320CCE7226886B935F87C
:10323000023BC3F308039362E36F03F02103212BE6
:10324000BFD1B4F85220013A92B2A4F85220D2E78A
:1032500016F8013BEFE70220B4E737B50025044636
:10326000C0F88450FDF712FD226803461268120769
:103270001AD56FF07E424FF40011204600922A4684
:10328000FFF74DFF80B1226852E8003F23F0800332
:1032900042E800310029F6D120230320E367002310
:1032A00084F8783003B030BD20230020E367C4F8F1
:1032B000803020666066F2E710B5044640B3C36F05
:1032C0001BB980F87830FDF7C1FB24232268E3673F
:1032D000136823F001031360636A13B12046FFF7FC
:1032E000C9FE2046FFF7AAFD012811D02368204619
:1032F0005A6822F490425A609A6822F02A029A6030
:103300001A6842F00102BDE810401A60FFF7A5BF3D
:10331000012010BD02440346934200D1704703F8D8
:10332000011BF9E770B50D4D0D4C641BA410002670
:10333000A64209D10B4D0C4C00F018F8641BA410E8
:103340000026A64205D170BD55F8043B98470136CA
:10335000EEE755F8043B98470136F2E7AC33000836
:10336000AC330008AC330008B0330008F8B500BF38
:10337000F8BC08BC9E467047F8B500BFF8BC08BC56
:043380009E467047AE
:103384007478200A00000000000102030400000019
:103394000000000000010203040607080900000001
:0833A400ACCEFF7F0100000028
:0433AC00050200080E
:0433B000E10100082F
:0C33B4000024F4000100000010000000E4
:0400000508000BC123
:00000001FF
